{
  "abi": [
    {
      "inputs": [
        {
          "internalType": "uint64",
          "name": "subscriptionId",
          "type": "uint64"
        },
        {
          "internalType": "uint256",
          "name": "platformFees",
          "type": "uint256"
        }
      ],
      "stateMutability": "nonpayable",
      "type": "constructor"
    },
    {
      "inputs": [
        {
          "internalType": "address",
          "name": "have",
          "type": "address"
        },
        {
          "internalType": "address",
          "name": "want",
          "type": "address"
        }
      ],
      "name": "OnlyCoordinatorCanFulfill",
      "type": "error"
    },
    {
      "anonymous": false,
      "inputs": [
        {
          "indexed": true,
          "internalType": "uint256",
          "name": "requestId",
          "type": "uint256"
        },
        {
          "indexed": true,
          "internalType": "uint256",
          "name": "result",
          "type": "uint256"
        }
      ],
      "name": "DiceLanded",
      "type": "event"
    },
    {
      "anonymous": false,
      "inputs": [
        {
          "indexed": true,
          "internalType": "uint256",
          "name": "requestId",
          "type": "uint256"
        },
        {
          "indexed": true,
          "internalType": "address",
          "name": "roller",
          "type": "address"
        }
      ],
      "name": "DiceRolled",
      "type": "event"
    },
    {
      "inputs": [],
      "name": "boxToDestroy",
      "outputs": [
        {
          "internalType": "uint256",
          "name": "",
          "type": "uint256"
        }
      ],
      "stateMutability": "view",
      "type": "function"
    },
    {
      "inputs": [
        {
          "internalType": "uint256",
          "name": "requestId",
          "type": "uint256"
        },
        {
          "internalType": "uint256[]",
          "name": "randomWords",
          "type": "uint256[]"
        }
      ],
      "name": "rawFulfillRandomWords",
      "outputs": [],
      "stateMutability": "nonpayable",
      "type": "function"
    },
    {
      "inputs": [],
      "name": "rollDice",
      "outputs": [
        {
          "internalType": "uint256",
          "name": "requestId",
          "type": "uint256"
        }
      ],
      "stateMutability": "nonpayable",
      "type": "function"
    },
    {
      "inputs": [
        {
          "internalType": "uint256",
          "name": "amount",
          "type": "uint256"
        }
      ],
      "name": "setFees",
      "outputs": [],
      "stateMutability": "nonpayable",
      "type": "function"
    },
    {
      "inputs": [
        {
          "internalType": "uint256",
          "name": "amount",
          "type": "uint256"
        }
      ],
      "name": "topUpSubscription",
      "outputs": [],
      "stateMutability": "nonpayable",
      "type": "function"
    },
    {
      "inputs": [
        {
          "internalType": "uint256",
          "name": "amount",
          "type": "uint256"
        },
        {
          "internalType": "address",
          "name": "to",
          "type": "address"
        }
      ],
      "name": "withdraw",
      "outputs": [],
      "stateMutability": "nonpayable",
      "type": "function"
    }
  ],
  "bytecode": {
    "object": "0x60a060405260018054730b9d5d9136855f6fec3c0993fee6e9ce8a2978466001600160a01b0319918216811790925560028054821690921790915560058054732ed832ba664535e5886b75d64c46eb9a228c261092169190911790557f354d2f95da55398f44b7cff77da56283d9c6c829a4bdf1bbcaf2ad6a4d081f61600655600780546001600160501b0319166601000300009c401790553480156100a457600080fd5b50604051610b00380380610b008339810160408190526100c391610141565b6005546001600160a01b039081166080819052600480546001600160a01b03199081169092179055600080546001600160401b039095166001600160401b0319680100000000000000003302166001600160e01b0319909616959095179490941790935560089190915560025460038054909316911617905561017b565b6000806040838503121561015457600080fd5b82516001600160401b038116811461016b57600080fd5b6020939093015192949293505050565b60805161096361019d6000396000818161017b01526101bd01526109636000f3fe608060405234801561001057600080fd5b50600436106100615760003560e01c8062f714ce146100665780631fe543e31461007b5780633d18678e1461008e578063837e7cc6146100a157806386850e93146100bb5780639877e6d0146100ce575b600080fd5b6100796100743660046106f1565b6100d6565b005b610079610089366004610743565b610170565b61007961009c36600461080d565b6101fd565b6100a9610220565b60405190815260200160405180910390f35b6100796100c936600461080d565b6104ec565b6100a96105af565b600054600160401b90046001600160a01b031633146100f457600080fd5b60035460405163a9059cbb60e01b81526001600160a01b038381166004830152602482018590529091169063a9059cbb906044016020604051808303816000875af1158015610147573d6000803e3d6000fd5b505050506040513d601f19601f8201168201806040525081019061016b9190610826565b505050565b336001600160a01b037f000000000000000000000000000000000000000000000000000000000000000016146101ef5760405163073e64fd60e21b81523360048201526001600160a01b037f00000000000000000000000000000000000000000000000000000000000000001660248201526044015b60405180910390fd5b6101f98282610665565b5050565b600054600160401b90046001600160a01b0316331461021b57600080fd5b600855565b336000908152600a6020526040812054602919016102805760405162461bcd60e51b815260206004820152601c60248201527f506c6179657220686173206120726f6c6c20696e2070726f676573730000000060448201526064016101e6565b6001546040516370a0823160e01b81523360048201526001600160a01b03909116906370a0823190602401602060405180830381865afa1580156102c8573d6000803e3d6000fd5b505050506040513d601f19601f820116820180604052508101906102ec919061084f565b600854106103515760405162461bcd60e51b815260206004820152602c60248201527f4e6f7420656e6f7567682062616c616e636520746f2067656e6572617465207260448201526b30b73237b690373ab6b132b960a11b60648201526084016101e6565b600480546006546000546007546040516305d3b1d360e41b81529485019290925267ffffffffffffffff166024840152640100000000810461ffff16604484015263ffffffff808216606485015266010000000000009091041660848301526001600160a01b031690635d3b1d309060a4016020604051808303816000875af11580156103e2573d6000803e3d6000fd5b505050506040513d601f19601f82011682018060405250810190610406919061084f565b600081815260096020908152604080832080546001600160a01b03191633908117909155808452600a90925291829020602a905560015460085492516323b872dd60e01b8152600481019290925230602483015260448201929092529192506001600160a01b0316906323b872dd906064016020604051808303816000875af1158015610497573d6000803e3d6000fd5b505050506040513d601f19601f820116820180604052508101906104bb9190610826565b50604051339082907f3e7fdeab84c01ce5308321caa0b460e1c4ec3c7099223d79634d9a71d99932e390600090a390565b600054600160401b90046001600160a01b0316331461050a57600080fd5b6003546004546000546040805167ffffffffffffffff90921660208301526001600160a01b0393841693634000aea09316918591016040516020818303038152906040526040518463ffffffff1660e01b815260040161056c93929190610868565b6020604051808303816000875af115801561058b573d6000803e3d6000fd5b505050506040513d601f19601f820116820180604052508101906101f99190610826565b336000908152600a602052604081205481036105ff5760405162461bcd60e51b815260206004820152600f60248201526e111a58d9481b9bdd081c9bdb1b1959608a1b60448201526064016101e6565b336000908152600a6020526040902054602919016106515760405162461bcd60e51b815260206004820152600f60248201526e526f6c6c20696e2070726f6765737360881b60448201526064016101e6565b50336000908152600a602052604090205490565b600060148260008151811061067c5761067c6108ce565b602002602001015161068e91906108e4565b610699906001610906565b6000848152600960209081526040808320546001600160a01b03168352600a90915280822083905551919250829185917f54d97c1f7e5abad75bd421455cd4dd296852a52e1ea721f2cdb66d06fa2082a991a3505050565b6000806040838503121561070457600080fd5b8235915060208301356001600160a01b038116811461072257600080fd5b809150509250929050565b634e487b7160e01b600052604160045260246000fd5b6000806040838503121561075657600080fd5b8235915060208084013567ffffffffffffffff8082111561077657600080fd5b818601915086601f83011261078a57600080fd5b81358181111561079c5761079c61072d565b8060051b604051601f19603f830116810181811085821117156107c1576107c161072d565b6040529182528482019250838101850191898311156107df57600080fd5b938501935b828510156107fd578435845293850193928501926107e4565b8096505050505050509250929050565b60006020828403121561081f57600080fd5b5035919050565b60006020828403121561083857600080fd5b8151801515811461084857600080fd5b9392505050565b60006020828403121561086157600080fd5b5051919050565b60018060a01b03841681526000602084602084015260606040840152835180606085015260005b818110156108ab5785810183015185820160800152820161088f565b506000608082860101526080601f19601f83011685010192505050949350505050565b634e487b7160e01b600052603260045260246000fd5b60008261090157634e487b7160e01b600052601260045260246000fd5b500690565b8082018082111561092757634e487b7160e01b600052601160045260246000fd5b9291505056fea2646970667358221220066a89023042c78c90d28ce885f13f7fcb5a3ae1a582af094cdc3f2db1aad11564736f6c63430008160033",
    "linkReferences": {}
  },
  "methodIdentifiers": {
    "boxToDestroy()": "9877e6d0",
    "rawFulfillRandomWords(uint256,uint256[])": "1fe543e3",
    "rollDice()": "837e7cc6",
    "setFees(uint256)": "3d18678e",
    "topUpSubscription(uint256)": "86850e93",
    "withdraw(uint256,address)": "00f714ce"
  },
  "id": 22
}