{
  "abi": [
    {
      "inputs": [
        {
          "internalType": "address",
          "name": "router",
          "type": "address"
        }
      ],
      "stateMutability": "nonpayable",
      "type": "constructor"
    },
    {
      "inputs": [
        {
          "internalType": "address",
          "name": "account",
          "type": "address"
        },
        {
          "internalType": "bytes32",
          "name": "requestId",
          "type": "bytes32"
        }
      ],
      "name": "AlreadyMinted",
      "type": "error"
    },
    {
      "inputs": [
        {
          "internalType": "address",
          "name": "account",
          "type": "address"
        },
        {
          "internalType": "bytes32",
          "name": "requestId",
          "type": "bytes32"
        }
      ],
      "name": "AlreadySetElegibleAccount",
      "type": "error"
    },
    {
      "inputs": [],
      "name": "EmptyArgs",
      "type": "error"
    },
    {
      "inputs": [],
      "name": "EmptySecrets",
      "type": "error"
    },
    {
      "inputs": [],
      "name": "EmptySource",
      "type": "error"
    },
    {
      "inputs": [
        {
          "internalType": "address",
          "name": "account",
          "type": "address"
        },
        {
          "internalType": "bytes32",
          "name": "requestId",
          "type": "bytes32"
        }
      ],
      "name": "NoElegibleAccount",
      "type": "error"
    },
    {
      "inputs": [],
      "name": "NoInlineSecrets",
      "type": "error"
    },
    {
      "inputs": [],
      "name": "OnlyRouterCanFulfill",
      "type": "error"
    },
    {
      "inputs": [
        {
          "internalType": "string",
          "name": "scoreId",
          "type": "string"
        }
      ],
      "name": "PrizeAlreadyRequested",
      "type": "error"
    },
    {
      "inputs": [
        {
          "internalType": "bytes32",
          "name": "requestId",
          "type": "bytes32"
        }
      ],
      "name": "UnexpectedRequestID",
      "type": "error"
    },
    {
      "anonymous": false,
      "inputs": [
        {
          "indexed": true,
          "internalType": "address",
          "name": "owner",
          "type": "address"
        },
        {
          "indexed": true,
          "internalType": "address",
          "name": "approved",
          "type": "address"
        },
        {
          "indexed": true,
          "internalType": "uint256",
          "name": "tokenId",
          "type": "uint256"
        }
      ],
      "name": "Approval",
      "type": "event"
    },
    {
      "anonymous": false,
      "inputs": [
        {
          "indexed": true,
          "internalType": "address",
          "name": "owner",
          "type": "address"
        },
        {
          "indexed": true,
          "internalType": "address",
          "name": "operator",
          "type": "address"
        },
        {
          "indexed": false,
          "internalType": "bool",
          "name": "approved",
          "type": "bool"
        }
      ],
      "name": "ApprovalForAll",
      "type": "event"
    },
    {
      "anonymous": false,
      "inputs": [
        {
          "indexed": false,
          "internalType": "uint256",
          "name": "_fromTokenId",
          "type": "uint256"
        },
        {
          "indexed": false,
          "internalType": "uint256",
          "name": "_toTokenId",
          "type": "uint256"
        }
      ],
      "name": "BatchMetadataUpdate",
      "type": "event"
    },
    {
      "anonymous": false,
      "inputs": [
        {
          "indexed": false,
          "internalType": "uint256",
          "name": "_tokenId",
          "type": "uint256"
        }
      ],
      "name": "MetadataUpdate",
      "type": "event"
    },
    {
      "anonymous": false,
      "inputs": [
        {
          "indexed": true,
          "internalType": "address",
          "name": "from",
          "type": "address"
        },
        {
          "indexed": true,
          "internalType": "address",
          "name": "to",
          "type": "address"
        }
      ],
      "name": "OwnershipTransferRequested",
      "type": "event"
    },
    {
      "anonymous": false,
      "inputs": [
        {
          "indexed": true,
          "internalType": "address",
          "name": "from",
          "type": "address"
        },
        {
          "indexed": true,
          "internalType": "address",
          "name": "to",
          "type": "address"
        }
      ],
      "name": "OwnershipTransferred",
      "type": "event"
    },
    {
      "anonymous": false,
      "inputs": [
        {
          "indexed": true,
          "internalType": "bytes32",
          "name": "id",
          "type": "bytes32"
        }
      ],
      "name": "RequestFulfilled",
      "type": "event"
    },
    {
      "anonymous": false,
      "inputs": [
        {
          "indexed": true,
          "internalType": "bytes32",
          "name": "id",
          "type": "bytes32"
        }
      ],
      "name": "RequestSent",
      "type": "event"
    },
    {
      "anonymous": false,
      "inputs": [
        {
          "indexed": true,
          "internalType": "bytes32",
          "name": "requestId",
          "type": "bytes32"
        },
        {
          "indexed": false,
          "internalType": "bytes",
          "name": "response",
          "type": "bytes"
        },
        {
          "indexed": false,
          "internalType": "bytes",
          "name": "err",
          "type": "bytes"
        }
      ],
      "name": "Response",
      "type": "event"
    },
    {
      "anonymous": false,
      "inputs": [
        {
          "indexed": true,
          "internalType": "address",
          "name": "from",
          "type": "address"
        },
        {
          "indexed": true,
          "internalType": "address",
          "name": "to",
          "type": "address"
        },
        {
          "indexed": true,
          "internalType": "uint256",
          "name": "tokenId",
          "type": "uint256"
        }
      ],
      "name": "Transfer",
      "type": "event"
    },
    {
      "inputs": [],
      "name": "acceptOwnership",
      "outputs": [],
      "stateMutability": "nonpayable",
      "type": "function"
    },
    {
      "inputs": [
        {
          "internalType": "address",
          "name": "to",
          "type": "address"
        },
        {
          "internalType": "uint256",
          "name": "tokenId",
          "type": "uint256"
        }
      ],
      "name": "approve",
      "outputs": [],
      "stateMutability": "nonpayable",
      "type": "function"
    },
    {
      "inputs": [
        {
          "internalType": "address",
          "name": "owner",
          "type": "address"
        }
      ],
      "name": "balanceOf",
      "outputs": [
        {
          "internalType": "uint256",
          "name": "",
          "type": "uint256"
        }
      ],
      "stateMutability": "view",
      "type": "function"
    },
    {
      "inputs": [
        {
          "internalType": "uint256",
          "name": "tokenId",
          "type": "uint256"
        }
      ],
      "name": "getApproved",
      "outputs": [
        {
          "internalType": "address",
          "name": "",
          "type": "address"
        }
      ],
      "stateMutability": "view",
      "type": "function"
    },
    {
      "inputs": [
        {
          "internalType": "bytes32",
          "name": "requestId",
          "type": "bytes32"
        },
        {
          "internalType": "bytes",
          "name": "response",
          "type": "bytes"
        },
        {
          "internalType": "bytes",
          "name": "err",
          "type": "bytes"
        }
      ],
      "name": "handleOracleFulfillment",
      "outputs": [],
      "stateMutability": "nonpayable",
      "type": "function"
    },
    {
      "inputs": [
        {
          "internalType": "address",
          "name": "owner",
          "type": "address"
        },
        {
          "internalType": "address",
          "name": "operator",
          "type": "address"
        }
      ],
      "name": "isApprovedForAll",
      "outputs": [
        {
          "internalType": "bool",
          "name": "",
          "type": "bool"
        }
      ],
      "stateMutability": "view",
      "type": "function"
    },
    {
      "inputs": [
        {
          "internalType": "bytes32",
          "name": "requestId",
          "type": "bytes32"
        }
      ],
      "name": "mintNft",
      "outputs": [],
      "stateMutability": "nonpayable",
      "type": "function"
    },
    {
      "inputs": [],
      "name": "name",
      "outputs": [
        {
          "internalType": "string",
          "name": "",
          "type": "string"
        }
      ],
      "stateMutability": "view",
      "type": "function"
    },
    {
      "inputs": [],
      "name": "owner",
      "outputs": [
        {
          "internalType": "address",
          "name": "",
          "type": "address"
        }
      ],
      "stateMutability": "view",
      "type": "function"
    },
    {
      "inputs": [
        {
          "internalType": "uint256",
          "name": "tokenId",
          "type": "uint256"
        }
      ],
      "name": "ownerOf",
      "outputs": [
        {
          "internalType": "address",
          "name": "",
          "type": "address"
        }
      ],
      "stateMutability": "view",
      "type": "function"
    },
    {
      "inputs": [
        {
          "internalType": "string",
          "name": "source",
          "type": "string"
        },
        {
          "internalType": "bytes",
          "name": "encryptedSecretsUrls",
          "type": "bytes"
        },
        {
          "internalType": "uint8",
          "name": "donHostedSecretsSlotID",
          "type": "uint8"
        },
        {
          "internalType": "uint64",
          "name": "donHostedSecretsVersion",
          "type": "uint64"
        },
        {
          "internalType": "string[]",
          "name": "args",
          "type": "string[]"
        },
        {
          "internalType": "bytes[]",
          "name": "bytesArgs",
          "type": "bytes[]"
        },
        {
          "internalType": "uint64",
          "name": "subscriptionId",
          "type": "uint64"
        },
        {
          "internalType": "uint32",
          "name": "gasLimit",
          "type": "uint32"
        },
        {
          "internalType": "bytes32",
          "name": "donID",
          "type": "bytes32"
        }
      ],
      "name": "requestPrize",
      "outputs": [
        {
          "internalType": "bytes32",
          "name": "requestId",
          "type": "bytes32"
        }
      ],
      "stateMutability": "nonpayable",
      "type": "function"
    },
    {
      "inputs": [],
      "name": "s_lastError",
      "outputs": [
        {
          "internalType": "bytes",
          "name": "",
          "type": "bytes"
        }
      ],
      "stateMutability": "view",
      "type": "function"
    },
    {
      "inputs": [],
      "name": "s_lastRequestId",
      "outputs": [
        {
          "internalType": "bytes32",
          "name": "",
          "type": "bytes32"
        }
      ],
      "stateMutability": "view",
      "type": "function"
    },
    {
      "inputs": [],
      "name": "s_lastResponse",
      "outputs": [
        {
          "internalType": "bytes",
          "name": "",
          "type": "bytes"
        }
      ],
      "stateMutability": "view",
      "type": "function"
    },
    {
      "inputs": [
        {
          "internalType": "address",
          "name": "from",
          "type": "address"
        },
        {
          "internalType": "address",
          "name": "to",
          "type": "address"
        },
        {
          "internalType": "uint256",
          "name": "tokenId",
          "type": "uint256"
        }
      ],
      "name": "safeTransferFrom",
      "outputs": [],
      "stateMutability": "nonpayable",
      "type": "function"
    },
    {
      "inputs": [
        {
          "internalType": "address",
          "name": "from",
          "type": "address"
        },
        {
          "internalType": "address",
          "name": "to",
          "type": "address"
        },
        {
          "internalType": "uint256",
          "name": "tokenId",
          "type": "uint256"
        },
        {
          "internalType": "bytes",
          "name": "data",
          "type": "bytes"
        }
      ],
      "name": "safeTransferFrom",
      "outputs": [],
      "stateMutability": "nonpayable",
      "type": "function"
    },
    {
      "inputs": [
        {
          "internalType": "bytes",
          "name": "request",
          "type": "bytes"
        },
        {
          "internalType": "uint64",
          "name": "subscriptionId",
          "type": "uint64"
        },
        {
          "internalType": "uint32",
          "name": "gasLimit",
          "type": "uint32"
        },
        {
          "internalType": "bytes32",
          "name": "donID",
          "type": "bytes32"
        }
      ],
      "name": "sendRequestCBOR",
      "outputs": [
        {
          "internalType": "bytes32",
          "name": "requestId",
          "type": "bytes32"
        }
      ],
      "stateMutability": "nonpayable",
      "type": "function"
    },
    {
      "inputs": [
        {
          "internalType": "address",
          "name": "operator",
          "type": "address"
        },
        {
          "internalType": "bool",
          "name": "approved",
          "type": "bool"
        }
      ],
      "name": "setApprovalForAll",
      "outputs": [],
      "stateMutability": "nonpayable",
      "type": "function"
    },
    {
      "inputs": [
        {
          "internalType": "address",
          "name": "account",
          "type": "address"
        },
        {
          "internalType": "bytes32",
          "name": "requestId",
          "type": "bytes32"
        }
      ],
      "name": "setElegibleAccountPrize",
      "outputs": [],
      "stateMutability": "nonpayable",
      "type": "function"
    },
    {
      "inputs": [
        {
          "internalType": "bytes4",
          "name": "interfaceId",
          "type": "bytes4"
        }
      ],
      "name": "supportsInterface",
      "outputs": [
        {
          "internalType": "bool",
          "name": "",
          "type": "bool"
        }
      ],
      "stateMutability": "view",
      "type": "function"
    },
    {
      "inputs": [],
      "name": "symbol",
      "outputs": [
        {
          "internalType": "string",
          "name": "",
          "type": "string"
        }
      ],
      "stateMutability": "view",
      "type": "function"
    },
    {
      "inputs": [
        {
          "internalType": "uint256",
          "name": "tokenId",
          "type": "uint256"
        }
      ],
      "name": "tokenURI",
      "outputs": [
        {
          "internalType": "string",
          "name": "",
          "type": "string"
        }
      ],
      "stateMutability": "view",
      "type": "function"
    },
    {
      "inputs": [
        {
          "internalType": "address",
          "name": "from",
          "type": "address"
        },
        {
          "internalType": "address",
          "name": "to",
          "type": "address"
        },
        {
          "internalType": "uint256",
          "name": "tokenId",
          "type": "uint256"
        }
      ],
      "name": "transferFrom",
      "outputs": [],
      "stateMutability": "nonpayable",
      "type": "function"
    },
    {
      "inputs": [
        {
          "internalType": "address",
          "name": "to",
          "type": "address"
        }
      ],
      "name": "transferOwnership",
      "outputs": [],
      "stateMutability": "nonpayable",
      "type": "function"
    }
  ],
  "bytecode": {
    "object": "0x610120604052605960a0818152906200315660c039600c90620000239082620002aa565b503480156200003157600080fd5b50604051620031af380380620031af833981016040819052620000549162000376565b33806000836040518060400160405280600981526020016814985e9bdc8813919560ba1b8152506040518060400160405280600381526020016220a1a760e91b8152508160009081620000a89190620002aa565b506001620000b78282620002aa565b5050506001600160a01b0390811660805282166200011c5760405162461bcd60e51b815260206004820152601860248201527f43616e6e6f7420736574206f776e657220746f207a65726f000000000000000060448201526064015b60405180910390fd5b600780546001600160a01b0319166001600160a01b03848116919091179091558116156200014f576200014f8162000159565b50505050620003a8565b336001600160a01b03821603620001b35760405162461bcd60e51b815260206004820152601760248201527f43616e6e6f74207472616e7366657220746f2073656c66000000000000000000604482015260640162000113565b600880546001600160a01b0319166001600160a01b03838116918217909255600754604051919216907fed8889f560326eb138920d842192f0eb3dd22b4f139c87a2c57538e05bae127890600090a350565b634e487b7160e01b600052604160045260246000fd5b600181811c908216806200023057607f821691505b6020821081036200025157634e487b7160e01b600052602260045260246000fd5b50919050565b601f821115620002a557600081815260208120601f850160051c81016020861015620002805750805b601f850160051c820191505b81811015620002a1578281556001016200028c565b5050505b505050565b81516001600160401b03811115620002c657620002c662000205565b620002de81620002d784546200021b565b8462000257565b602080601f831160018114620003165760008415620002fd5750858301515b600019600386901b1c1916600185901b178555620002a1565b600085815260208120601f198616915b82811015620003475788860151825594840194600190910190840162000326565b5085821015620003665787850151600019600388901b60f8161c191681555b5050505050600190811b01905550565b6000602082840312156200038957600080fd5b81516001600160a01b0381168114620003a157600080fd5b9392505050565b608051612d8b620003cb6000396000818161059d01526110ca0152612d8b6000f3fe608060405234801561001057600080fd5b50600436106101585760003560e01c806370a08231116100c3578063a22cb4651161007c578063a22cb465146102c4578063b1e21749146102d7578063b88d4fde146102e0578063c87b56dd146102f3578063e985e9c514610306578063f2fde38b1461031957600080fd5b806370a082311461025c578063742495a11461027d57806379ba5097146102905780638da5cb5b1461029857806395d89b41146102a95780639681096f146102b157600080fd5b806323b872dd1161011557806323b872dd146102005780633944ea3a1461021357806342842e0e1461021b57806343a47d301461022e5780634b0795a8146102415780636352211e1461024957600080fd5b806301ffc9a71461015d57806306fdde0314610185578063081812fc1461019a578063095ea7b3146101c55780630ad04475146101da5780630ca76175146101ed575b600080fd5b61017061016b366004612269565b61032c565b60405190151581526020015b60405180910390f35b61018d61033d565b60405161017c91906122d6565b6101ad6101a83660046122e9565b6103cf565b6040516001600160a01b03909116815260200161017c565b6101d86101d336600461231e565b6103f6565b005b6101d86101e836600461231e565b610510565b6101d86101fb3660046123fd565b610592565b6101d861020e366004612469565b610616565b61018d610647565b6101d8610229366004612469565b6106d5565b6101d861023c3660046122e9565b6106f0565b61018d61083a565b6101ad6102573660046122e9565b610847565b61026f61026a3660046124a5565b6108a7565b60405190815260200161017c565b61026f61028b36600461259a565b61092d565b6101d8610a19565b6007546001600160a01b03166101ad565b61018d610ac7565b61026f6102bf366004612693565b610ad6565b6101d86102d23660046126f8565b610afc565b61026f60095481565b6101d86102ee366004612734565b610b0b565b61018d6103013660046122e9565b610b43565b61017061031436600461279b565b610b4e565b6101d86103273660046124a5565b610b7c565b600061033782610b90565b92915050565b60606000805461034c906127ce565b80601f0160208091040260200160405190810160405280929190818152602001828054610378906127ce565b80156103c55780601f1061039a576101008083540402835291602001916103c5565b820191906000526020600020905b8154815290600101906020018083116103a857829003601f168201915b5050505050905090565b60006103da82610bb5565b506000908152600460205260409020546001600160a01b031690565b600061040182610847565b9050806001600160a01b0316836001600160a01b0316036104735760405162461bcd60e51b815260206004820152602160248201527f4552433732313a20617070726f76616c20746f2063757272656e74206f776e656044820152603960f91b60648201526084015b60405180910390fd5b336001600160a01b038216148061048f575061048f8133610b4e565b6105015760405162461bcd60e51b815260206004820152603d60248201527f4552433732313a20617070726f76652063616c6c6572206973206e6f7420746f60448201527f6b656e206f776e6572206f7220617070726f76656420666f7220616c6c000000606482015260840161046a565b61050b8383610c14565b505050565b610518610c82565b6000818152600f60205260409020546001600160a01b038084169116036105645760405163082fe55160e11b81526001600160a01b03831660048201526024810182905260440161046a565b6000908152600f6020526040902080546001600160a01b0319166001600160a01b0392909216919091179055565b336001600160a01b037f000000000000000000000000000000000000000000000000000000000000000016146105db5760405163c6829f8360e01b815260040160405180910390fd5b6105e6838383610cd7565b60405183907f85e1543bf2f84fe80c6badbce3648c8539ad1df4d2b3d822938ca0538be727e690600090a2505050565b6106203382610d57565b61063c5760405162461bcd60e51b815260040161046a90612808565b61050b838383610db5565b600a8054610654906127ce565b80601f0160208091040260200160405190810160405280929190818152602001828054610680906127ce565b80156106cd5780601f106106a2576101008083540402835291602001916106cd565b820191906000526020600020905b8154815290600101906020018083116106b057829003601f168201915b505050505081565b61050b83838360405180602001604052806000815250610b0b565b6000818152600f60205260409020546001600160a01b031633146107305760405163121f263360e01b81523360048201526024810182905260440161046a565b60008181526010602052604090205460ff161561076957604051634302065360e01b81523360048201526024810182905260440161046a565b600d80546000918261077a8361286b565b91905055905061078a3382610f19565b61081e81600c805461079b906127ce565b80601f01602080910402602001604051908101604052809291908181526020018280546107c7906127ce565b80156108145780601f106107e957610100808354040283529160200191610814565b820191906000526020600020905b8154815290600101906020018083116107f757829003601f168201915b5050505050610f33565b506000908152601060205260409020805460ff19166001179055565b600b8054610654906127ce565b6000818152600260205260408120546001600160a01b0316806103375760405162461bcd60e51b8152602060048201526018602482015277115490cdcc8c4e881a5b9d985b1a59081d1bdad95b88125160421b604482015260640161046a565b60006001600160a01b0382166109115760405162461bcd60e51b815260206004820152602960248201527f4552433732313a2061646472657373207a65726f206973206e6f7420612076616044820152683634b21037bbb732b960b91b606482015260840161046a565b506001600160a01b031660009081526003602052604090205490565b6000610937610c82565b600e8660008151811061094c5761094c612884565b6020026020010151604051610961919061289a565b9081526040519081900360200190205460ff16156109ae578560008151811061098c5761098c612884565b6020026020010151604051639edcf6c760e01b815260040161046a91906122d6565b6001600e876000815181106109c5576109c5612884565b60200260200101516040516109da919061289a565b908152604051908190036020019020805491151560ff19909216919091179055610a0b8a8a8a8a8a8a8a8a8a610ffe565b9a9950505050505050505050565b6008546001600160a01b03163314610a6c5760405162461bcd60e51b815260206004820152601660248201527526bab9ba10313290383937b837b9b2b21037bbb732b960511b604482015260640161046a565b600780546001600160a01b0319808216339081179093556008805490911690556040516001600160a01b03909116919082907f8be0079c531659141344cd1fd0a4f28419497f9722a3daafe3b4186f6b6457e090600090a350565b60606001805461034c906127ce565b6000610ae0610c82565b610aec858585856110c5565b600981905590505b949350505050565b610b07338383611197565b5050565b610b153383610d57565b610b315760405162461bcd60e51b815260040161046a90612808565b610b3d84848484611265565b50505050565b606061033782611298565b6001600160a01b03918216600090815260056020908152604080832093909416825291909152205460ff1690565b610b84610c82565b610b8d816113a0565b50565b60006001600160e01b03198216632483248360e11b148061033757506103378261144a565b6000818152600260205260409020546001600160a01b0316610b8d5760405162461bcd60e51b8152602060048201526018602482015277115490cdcc8c4e881a5b9d985b1a59081d1bdad95b88125160421b604482015260640161046a565b600081815260046020526040902080546001600160a01b0319166001600160a01b0384169081179091558190610c4982610847565b6001600160a01b03167f8c5be1e5ebec7d5bd14f71427d1e84f3dd0314c0f7b2291e5b200ac8c7c3b92560405160405180910390a45050565b6007546001600160a01b03163314610cd55760405162461bcd60e51b815260206004820152601660248201527527b7363c9031b0b63630b1363290313c9037bbb732b960511b604482015260640161046a565b565b8260095414610cfc5760405163d068bf5b60e01b81526004810184905260240161046a565b600a610d088382612904565b50600b610d158282612904565b50827f7873807bf6ddc50401cd3d29bbe0decee23fd4d68d273f4b5eb83cded4d2f172600a600b604051610d4a929190612a40565b60405180910390a2505050565b600080610d6383610847565b9050806001600160a01b0316846001600160a01b03161480610d8a5750610d8a8185610b4e565b80610af45750836001600160a01b0316610da3846103cf565b6001600160a01b031614949350505050565b826001600160a01b0316610dc882610847565b6001600160a01b031614610dee5760405162461bcd60e51b815260040161046a90612a6e565b6001600160a01b038216610e505760405162461bcd60e51b8152602060048201526024808201527f4552433732313a207472616e7366657220746f20746865207a65726f206164646044820152637265737360e01b606482015260840161046a565b826001600160a01b0316610e6382610847565b6001600160a01b031614610e895760405162461bcd60e51b815260040161046a90612a6e565b600081815260046020908152604080832080546001600160a01b03199081169091556001600160a01b0387811680865260038552838620805460001901905590871680865283862080546001019055868652600290945282852080549092168417909155905184937fddf252ad1be2c89b69c2b068fc378daa952ba7f163c4a11628f55a4df523b3ef91a4505050565b610b0782826040518060200160405280600081525061149a565b6000828152600260205260409020546001600160a01b0316610fae5760405162461bcd60e51b815260206004820152602e60248201527f45524337323155524953746f726167653a2055524920736574206f66206e6f6e60448201526d32bc34b9ba32b73a103a37b5b2b760911b606482015260840161046a565b6000828152600660205260409020610fc68282612904565b506040518281527ff8e1a15aba9398e019f0b49df1a4fde98ee17ae345cb5f6b5e2c27f5033e8ce79060200160405180910390a15050565b60006110416040805160e0810190915280600081526020016000815260200160008152602001606081526020016060815260200160608152602001606081525090565b61104b818c6114cd565b8951156110615761105c818b6114da565b61107b565b6001600160401b0388161561107b5761107b818a8a61150b565b86511561108c5761108c81886115a1565b85511561109d5761109d81876115cb565b6110b16110a9826115f5565b8686866110c5565b60098190559b9a5050505050505050505050565b6000807f00000000000000000000000000000000000000000000000000000000000000006001600160a01b031663461d27628688600188886040518663ffffffff1660e01b815260040161111d959493929190612ab3565b6020604051808303816000875af115801561113c573d6000803e3d6000fd5b505050506040513d601f19601f820116820180604052508101906111609190612afc565b60405190915081907f1131472297a800fee664d1d89cfa8f7676ff07189ecc53f80bbb5f4969099db890600090a295945050505050565b816001600160a01b0316836001600160a01b0316036111f85760405162461bcd60e51b815260206004820152601960248201527f4552433732313a20617070726f766520746f2063616c6c657200000000000000604482015260640161046a565b6001600160a01b03838116600081815260056020908152604080832094871680845294825291829020805460ff191686151590811790915591519182527f17307eab39ab6107e8899845ad3d59bd9653f200f220920489ca2b5937696c31910160405180910390a3505050565b611270848484610db5565b61127c848484846118cd565b610b3d5760405162461bcd60e51b815260040161046a90612b15565b60606112a382610bb5565b600082815260066020526040812080546112bc906127ce565b80601f01602080910402602001604051908101604052809291908181526020018280546112e8906127ce565b80156113355780601f1061130a57610100808354040283529160200191611335565b820191906000526020600020905b81548152906001019060200180831161131857829003601f168201915b50505050509050600061135360408051602081019091526000815290565b90508051600003611365575092915050565b81511561139757808260405160200161137f929190612b67565b60405160208183030381529060405292505050919050565b610af4846119cb565b336001600160a01b038216036113f85760405162461bcd60e51b815260206004820152601760248201527f43616e6e6f74207472616e7366657220746f2073656c66000000000000000000604482015260640161046a565b600880546001600160a01b0319166001600160a01b03838116918217909255600754604051919216907fed8889f560326eb138920d842192f0eb3dd22b4f139c87a2c57538e05bae127890600090a350565b60006001600160e01b031982166380ac58cd60e01b148061147b57506001600160e01b03198216635b5e139f60e01b145b8061033757506301ffc9a760e01b6001600160e01b0319831614610337565b6114a48383611a3f565b6114b160008484846118cd565b61050b5760405162461bcd60e51b815260040161046a90612b15565b610b078260008084611bca565b80516000036114fc5760405163e889636f60e01b815260040160405180910390fd5b60016020830152608090910152565b6000611518610100611c48565b905061154b604051806040016040528060068152602001651cdb1bdd125160d21b81525082611c6990919063ffffffff16565b6115588160ff8516611c82565b6040805180820190915260078152663b32b939b4b7b760c91b6020820152611581908290611c69565b61158b8183611c82565b6002602085015251516080909301929092525050565b80516000036115c35760405163fe936cb760e01b815260040160405180910390fd5b60a090910152565b80516000036115ed5760405163fe936cb760e01b815260040160405180910390fd5b60c090910152565b60606000611604610100611c48565b905061163d6040518060400160405280600c81526020016b31b7b232a637b1b0ba34b7b760a11b81525082611c6990919063ffffffff16565b825161165b90600281111561165457611654612b96565b8290611c8e565b6040805180820190915260088152676c616e677561676560c01b6020820152611685908290611c69565b604083015161169c90801561165457611654612b96565b604080518082019091526006815265736f7572636560d01b60208201526116c4908290611c69565b60608301516116d4908290611c69565b60a08301515115611768576040805180820190915260048152636172677360e01b6020820152611705908290611c69565b61170e81611cc7565b60005b8360a001515181101561175e5761174e8460a00151828151811061173757611737612884565b602002602001015183611c6990919063ffffffff16565b6117578161286b565b9050611711565b5061176881611ceb565b6080830151511561182c5760008360200151600281111561178b5761178b612b96565b036117a95760405163a80d31f760e01b815260040160405180910390fd5b60408051808201909152600f81526e39b2b1b932ba39a637b1b0ba34b7b760891b60208201526117da908290611c69565b6117f38360200151600281111561165457611654612b96565b6040805180820190915260078152667365637265747360c81b602082015261181c908290611c69565b608083015161182c908290611d09565b60c083015151156118c55760408051808201909152600981526862797465734172677360b81b6020820152611862908290611c69565b61186b81611cc7565b60005b8360c00151518110156118bb576118ab8460c00151828151811061189457611894612884565b602002602001015183611d0990919063ffffffff16565b6118b48161286b565b905061186e565b506118c581611ceb565b515192915050565b60006001600160a01b0384163b156119c357604051630a85bd0160e11b81526001600160a01b0385169063150b7a0290611911903390899088908890600401612bac565b6020604051808303816000875af192505050801561194c575060408051601f3d908101601f1916820190925261194991810190612be9565b60015b6119a9573d80801561197a576040519150601f19603f3d011682016040523d82523d6000602084013e61197f565b606091505b5080516000036119a15760405162461bcd60e51b815260040161046a90612b15565b805181602001fd5b6001600160e01b031916630a85bd0160e11b149050610af4565b506001610af4565b60606119d682610bb5565b60006119ed60408051602081019091526000815290565b90506000815111611a0d5760405180602001604052806000815250611a38565b80611a1784611d16565b604051602001611a28929190612b67565b6040516020818303038152906040525b9392505050565b6001600160a01b038216611a955760405162461bcd60e51b815260206004820181905260248201527f4552433732313a206d696e7420746f20746865207a65726f2061646472657373604482015260640161046a565b6000818152600260205260409020546001600160a01b031615611afa5760405162461bcd60e51b815260206004820152601c60248201527f4552433732313a20746f6b656e20616c7265616479206d696e74656400000000604482015260640161046a565b6000818152600260205260409020546001600160a01b031615611b5f5760405162461bcd60e51b815260206004820152601c60248201527f4552433732313a20746f6b656e20616c7265616479206d696e74656400000000604482015260640161046a565b6001600160a01b038216600081815260036020908152604080832080546001019055848352600290915280822080546001600160a01b0319168417905551839291907fddf252ad1be2c89b69c2b068fc378daa952ba7f163c4a11628f55a4df523b3ef908290a45050565b8051600003611bec576040516322ce3edd60e01b815260040160405180910390fd5b83836002811115611bff57611bff612b96565b90816002811115611c1257611c12612b96565b90525060408401828015611c2857611c28612b96565b90818015611c3857611c38612b96565b9052506060909301929092525050565b611c5061221e565b8051611c5c9083611da8565b5060006020820152919050565b611c768260038351611e1f565b815161050b9082611f38565b610b0782600083611e1f565b8151611c9b9060c2611f59565b50610b078282604051602001611cb391815260200190565b604051602081830303815290604052611d09565b611cd2816004611fc2565b600181602001818151611ce59190612c06565b90525050565b611cf6816007611fc2565b600181602001818151611ce59190612c19565b611c768260028351611e1f565b60606000611d2383611fd9565b60010190506000816001600160401b03811115611d4257611d42612348565b6040519080825280601f01601f191660200182016040528015611d6c576020820181803683370190505b5090508181016020015b600019016f181899199a1a9b1b9c1cb0b131b232b360811b600a86061a8153600a8504945084611d7657509392505050565b604080518082019091526060815260006020820152611dc8602083612c2c565b15611df057611dd8602083612c2c565b611de3906020612c19565b611ded9083612c06565b91505b602080840183905260405180855260008152908184010181811015611e1457600080fd5b604052509192915050565b6017816001600160401b031611611e45578251610b3d9060e0600585901b168317611f59565b60ff816001600160401b031611611e85578251611e6d906018611fe0600586901b1617611f59565b508251610b3d906001600160401b03831660016120b1565b61ffff816001600160401b031611611ec6578251611eae906019611fe0600586901b1617611f59565b508251610b3d906001600160401b03831660026120b1565b63ffffffff816001600160401b031611611f09578251611ef190601a611fe0600586901b1617611f59565b508251610b3d906001600160401b03831660046120b1565b8251611f2090601b611fe0600586901b1617611f59565b508251610b3d906001600160401b03831660086120b1565b604080518082019091526060815260006020820152611a3883838451612136565b6040805180820190915260608152600060208201528251516000611f7e826001612c06565b905084602001518210611f9f57611f9f85611f9a836002612c4e565b612207565b8451602083820101858153508051821115611fb8578181525b5093949350505050565b815161050b90601f611fe0600585901b1617611f59565b60008072184f03e93ff9f4daa797ed6e38ed64bf6a1f0160401b83106120185772184f03e93ff9f4daa797ed6e38ed64bf6a1f0160401b830492506040015b6d04ee2d6d415b85acef81000000008310612044576d04ee2d6d415b85acef8100000000830492506020015b662386f26fc10000831061206257662386f26fc10000830492506010015b6305f5e100831061207a576305f5e100830492506008015b612710831061208e57612710830492506004015b606483106120a0576064830492506002015b600a83106103375760010192915050565b60408051808201909152606081526000602082015283515160006120d58285612c06565b905085602001518111156120f2576120f286611f9a836002612c4e565b6000600161210286610100612d49565b61210c9190612c19565b9050865182810187831982511617815250805183111561212a578281525b50959695505050505050565b604080518082019091526060815260006020820152825182111561215957600080fd5b83515160006121688483612c06565b905085602001518111156121855761218586611f9a836002612c4e565b85518051838201602001916000918085111561219f578482525b505050602086015b602086106121df57805182526121be602083612c06565b91506121cb602082612c06565b90506121d8602087612c19565b95506121a7565b51815160001960208890036101000a0190811690199190911617905250849150509392505050565b81516122138383611da8565b50610b3d8382611f38565b6040518060400160405280612246604051806040016040528060608152602001600081525090565b8152602001600081525090565b6001600160e01b031981168114610b8d57600080fd5b60006020828403121561227b57600080fd5b8135611a3881612253565b60005b838110156122a1578181015183820152602001612289565b50506000910152565b600081518084526122c2816020860160208601612286565b601f01601f19169290920160200192915050565b602081526000611a3860208301846122aa565b6000602082840312156122fb57600080fd5b5035919050565b80356001600160a01b038116811461231957600080fd5b919050565b6000806040838503121561233157600080fd5b61233a83612302565b946020939093013593505050565b634e487b7160e01b600052604160045260246000fd5b604051601f8201601f191681016001600160401b038111828210171561238657612386612348565b604052919050565b600082601f83011261239f57600080fd5b81356001600160401b038111156123b8576123b8612348565b6123cb601f8201601f191660200161235e565b8181528460208386010111156123e057600080fd5b816020850160208301376000918101602001919091529392505050565b60008060006060848603121561241257600080fd5b8335925060208401356001600160401b038082111561243057600080fd5b61243c8783880161238e565b9350604086013591508082111561245257600080fd5b5061245f8682870161238e565b9150509250925092565b60008060006060848603121561247e57600080fd5b61248784612302565b925061249560208501612302565b9150604084013590509250925092565b6000602082840312156124b757600080fd5b611a3882612302565b803560ff8116811461231957600080fd5b80356001600160401b038116811461231957600080fd5b600082601f8301126124f957600080fd5b813560206001600160401b038083111561251557612515612348565b8260051b61252483820161235e565b938452858101830193838101908886111561253e57600080fd5b84880192505b8583101561257a5782358481111561255c5760008081fd5b61256a8a87838c010161238e565b8352509184019190840190612544565b98975050505050505050565b803563ffffffff8116811461231957600080fd5b60008060008060008060008060006101208a8c0312156125b957600080fd5b89356001600160401b03808211156125d057600080fd5b6125dc8d838e0161238e565b9a5060208c01359150808211156125f257600080fd5b6125fe8d838e0161238e565b995061260c60408d016124c0565b985061261a60608d016124d1565b975060808c013591508082111561263057600080fd5b61263c8d838e016124e8565b965060a08c013591508082111561265257600080fd5b5061265f8c828d016124e8565b94505061266e60c08b016124d1565b925061267c60e08b01612586565b91506101008a013590509295985092959850929598565b600080600080608085870312156126a957600080fd5b84356001600160401b038111156126bf57600080fd5b6126cb8782880161238e565b9450506126da602086016124d1565b92506126e860408601612586565b9396929550929360600135925050565b6000806040838503121561270b57600080fd5b61271483612302565b91506020830135801515811461272957600080fd5b809150509250929050565b6000806000806080858703121561274a57600080fd5b61275385612302565b935061276160208601612302565b92506040850135915060608501356001600160401b0381111561278357600080fd5b61278f8782880161238e565b91505092959194509250565b600080604083850312156127ae57600080fd5b6127b783612302565b91506127c560208401612302565b90509250929050565b600181811c908216806127e257607f821691505b60208210810361280257634e487b7160e01b600052602260045260246000fd5b50919050565b6020808252602d908201527f4552433732313a2063616c6c6572206973206e6f7420746f6b656e206f776e6560408201526c1c881bdc88185c1c1c9bdd9959609a1b606082015260800190565b634e487b7160e01b600052601160045260246000fd5b60006001820161287d5761287d612855565b5060010190565b634e487b7160e01b600052603260045260246000fd5b600082516128ac818460208701612286565b9190910192915050565b601f82111561050b57600081815260208120601f850160051c810160208610156128dd5750805b601f850160051c820191505b818110156128fc578281556001016128e9565b505050505050565b81516001600160401b0381111561291d5761291d612348565b6129318161292b84546127ce565b846128b6565b602080601f831160018114612966576000841561294e5750858301515b600019600386901b1c1916600185901b1785556128fc565b600085815260208120601f198616915b8281101561299557888601518255948401946001909101908401612976565b50858210156129b35787850151600019600388901b60f8161c191681555b5050505050600190811b01905550565b600081546129d0816127ce565b8085526020600183811680156129ed5760018114612a0757612a35565b60ff1985168884015283151560051b880183019550612a35565b866000528260002060005b85811015612a2d5781548a8201860152908301908401612a12565b890184019650505b505050505092915050565b604081526000612a5360408301856129c3565b8281036020840152612a6581856129c3565b95945050505050565b60208082526025908201527f4552433732313a207472616e736665722066726f6d20696e636f72726563742060408201526437bbb732b960d91b606082015260800190565b6001600160401b038616815260a060208201526000612ad560a08301876122aa565b61ffff9590951660408301525063ffffffff92909216606083015260809091015292915050565b600060208284031215612b0e57600080fd5b5051919050565b60208082526032908201527f4552433732313a207472616e7366657220746f206e6f6e20455243373231526560408201527131b2b4bb32b91034b6b83632b6b2b73a32b960711b606082015260800190565b60008351612b79818460208801612286565b835190830190612b8d818360208801612286565b01949350505050565b634e487b7160e01b600052602160045260246000fd5b6001600160a01b0385811682528416602082015260408101839052608060608201819052600090612bdf908301846122aa565b9695505050505050565b600060208284031215612bfb57600080fd5b8151611a3881612253565b8082018082111561033757610337612855565b8181038181111561033757610337612855565b600082612c4957634e487b7160e01b600052601260045260246000fd5b500690565b808202811582820484141761033757610337612855565b600181815b80851115612ca0578160001904821115612c8657612c86612855565b80851615612c9357918102915b93841c9390800290612c6a565b509250929050565b600082612cb757506001610337565b81612cc457506000610337565b8160018114612cda5760028114612ce457612d00565b6001915050610337565b60ff841115612cf557612cf5612855565b50506001821b610337565b5060208310610133831016604e8410600b8410161715612d23575081810a610337565b612d2d8383612c65565b8060001904821115612d4157612d41612855565b029392505050565b6000611a388383612ca856fea264697066735822122006ace30c59bfea6c1f20616d96fef422b9009637c510c5a90481797f2aefef2164736f6c6343000813003368747470733a2f2f697066732e696f2f697066732f516d5538343437796871626d657651445a507076655553365a45366d617a4b48526459724c70724774676a4a64583f66696c656e616d653d525a525f636f696e2e706e67",
    "linkReferences": {}
  },
  "methodIdentifiers": {
    "acceptOwnership()": "79ba5097",
    "approve(address,uint256)": "095ea7b3",
    "balanceOf(address)": "70a08231",
    "getApproved(uint256)": "081812fc",
    "handleOracleFulfillment(bytes32,bytes,bytes)": "0ca76175",
    "isApprovedForAll(address,address)": "e985e9c5",
    "mintNft(bytes32)": "43a47d30",
    "name()": "06fdde03",
    "owner()": "8da5cb5b",
    "ownerOf(uint256)": "6352211e",
    "requestPrize(string,bytes,uint8,uint64,string[],bytes[],uint64,uint32,bytes32)": "742495a1",
    "s_lastError()": "4b0795a8",
    "s_lastRequestId()": "b1e21749",
    "s_lastResponse()": "3944ea3a",
    "safeTransferFrom(address,address,uint256)": "42842e0e",
    "safeTransferFrom(address,address,uint256,bytes)": "b88d4fde",
    "sendRequestCBOR(bytes,uint64,uint32,bytes32)": "9681096f",
    "setApprovalForAll(address,bool)": "a22cb465",
    "setElegibleAccountPrize(address,bytes32)": "0ad04475",
    "supportsInterface(bytes4)": "01ffc9a7",
    "symbol()": "95d89b41",
    "tokenURI(uint256)": "c87b56dd",
    "transferFrom(address,address,uint256)": "23b872dd",
    "transferOwnership(address)": "f2fde38b"
  },
  "id": 26
}