{
  "abi": [
    {
      "inputs": [
        {
          "internalType": "address",
          "name": "_router",
          "type": "address"
        },
        {
          "internalType": "address",
          "name": "_link",
          "type": "address"
        },
        {
          "internalType": "address",
          "name": "_nativeToken",
          "type": "address"
        },
        {
          "internalType": "address",
          "name": "_platform",
          "type": "address"
        }
      ],
      "stateMutability": "nonpayable",
      "type": "constructor"
    },
    {
      "inputs": [
        {
          "internalType": "uint64",
          "name": "destinationChainSelector",
          "type": "uint64"
        }
      ],
      "name": "DestinationChainNotAllowed",
      "type": "error"
    },
    {
      "inputs": [
        {
          "internalType": "address",
          "name": "owner",
          "type": "address"
        },
        {
          "internalType": "address",
          "name": "target",
          "type": "address"
        },
        {
          "internalType": "uint256",
          "name": "value",
          "type": "uint256"
        }
      ],
      "name": "FailedToWithdrawEth",
      "type": "error"
    },
    {
      "inputs": [
        {
          "internalType": "uint256",
          "name": "currentBalance",
          "type": "uint256"
        },
        {
          "internalType": "uint256",
          "name": "calculatedFees",
          "type": "uint256"
        }
      ],
      "name": "NotEnoughBalance",
      "type": "error"
    },
    {
      "inputs": [],
      "name": "NothingToWithdraw",
      "type": "error"
    },
    {
      "inputs": [
        {
          "internalType": "address",
          "name": "sender",
          "type": "address"
        }
      ],
      "name": "SenderNotAllowed",
      "type": "error"
    },
    {
      "anonymous": false,
      "inputs": [
        {
          "indexed": true,
          "internalType": "bytes32",
          "name": "messageId",
          "type": "bytes32"
        },
        {
          "indexed": true,
          "internalType": "uint64",
          "name": "destinationChainSelector",
          "type": "uint64"
        },
        {
          "indexed": false,
          "internalType": "address",
          "name": "receiver",
          "type": "address"
        },
        {
          "indexed": false,
          "internalType": "string",
          "name": "text",
          "type": "string"
        },
        {
          "indexed": false,
          "internalType": "address",
          "name": "token",
          "type": "address"
        },
        {
          "indexed": false,
          "internalType": "uint256",
          "name": "tokenAmount",
          "type": "uint256"
        },
        {
          "indexed": false,
          "internalType": "address",
          "name": "feeToken",
          "type": "address"
        },
        {
          "indexed": false,
          "internalType": "uint256",
          "name": "fees",
          "type": "uint256"
        }
      ],
      "name": "MessageSent",
      "type": "event"
    },
    {
      "anonymous": false,
      "inputs": [
        {
          "indexed": true,
          "internalType": "address",
          "name": "from",
          "type": "address"
        },
        {
          "indexed": true,
          "internalType": "address",
          "name": "to",
          "type": "address"
        }
      ],
      "name": "OwnershipTransferRequested",
      "type": "event"
    },
    {
      "anonymous": false,
      "inputs": [
        {
          "indexed": true,
          "internalType": "address",
          "name": "from",
          "type": "address"
        },
        {
          "indexed": true,
          "internalType": "address",
          "name": "to",
          "type": "address"
        }
      ],
      "name": "OwnershipTransferred",
      "type": "event"
    },
    {
      "inputs": [],
      "name": "acceptOwnership",
      "outputs": [],
      "stateMutability": "nonpayable",
      "type": "function"
    },
    {
      "inputs": [
        {
          "internalType": "uint64",
          "name": "_destinationChainSelector",
          "type": "uint64"
        },
        {
          "internalType": "bool",
          "name": "allowed",
          "type": "bool"
        }
      ],
      "name": "allowListDestinationChain",
      "outputs": [],
      "stateMutability": "nonpayable",
      "type": "function"
    },
    {
      "inputs": [
        {
          "internalType": "uint64",
          "name": "",
          "type": "uint64"
        }
      ],
      "name": "allowListedDestinationChains",
      "outputs": [
        {
          "internalType": "bool",
          "name": "",
          "type": "bool"
        }
      ],
      "stateMutability": "view",
      "type": "function"
    },
    {
      "inputs": [
        {
          "internalType": "uint64",
          "name": "",
          "type": "uint64"
        }
      ],
      "name": "allowListedSourceChains",
      "outputs": [
        {
          "internalType": "bool",
          "name": "",
          "type": "bool"
        }
      ],
      "stateMutability": "view",
      "type": "function"
    },
    {
      "inputs": [
        {
          "internalType": "uint64",
          "name": "_destinationChainSelector",
          "type": "uint64"
        },
        {
          "internalType": "address",
          "name": "_receiver",
          "type": "address"
        },
        {
          "internalType": "string",
          "name": "_text",
          "type": "string"
        },
        {
          "internalType": "address",
          "name": "_token_fees",
          "type": "address"
        },
        {
          "internalType": "address",
          "name": "_token",
          "type": "address"
        },
        {
          "internalType": "uint256",
          "name": "_amount",
          "type": "uint256"
        }
      ],
      "name": "getFeePrediction",
      "outputs": [
        {
          "internalType": "uint256",
          "name": "",
          "type": "uint256"
        }
      ],
      "stateMutability": "view",
      "type": "function"
    },
    {
      "inputs": [],
      "name": "owner",
      "outputs": [
        {
          "internalType": "address",
          "name": "",
          "type": "address"
        }
      ],
      "stateMutability": "view",
      "type": "function"
    },
    {
      "inputs": [
        {
          "internalType": "uint64",
          "name": "_destinationChainSelector",
          "type": "uint64"
        },
        {
          "internalType": "address",
          "name": "_receiver",
          "type": "address"
        },
        {
          "internalType": "string",
          "name": "_text",
          "type": "string"
        },
        {
          "internalType": "address",
          "name": "_token",
          "type": "address"
        },
        {
          "internalType": "uint256",
          "name": "_amount",
          "type": "uint256"
        }
      ],
      "name": "sendTokenPayLink",
      "outputs": [
        {
          "internalType": "bytes32",
          "name": "messageId",
          "type": "bytes32"
        }
      ],
      "stateMutability": "nonpayable",
      "type": "function"
    },
    {
      "inputs": [
        {
          "internalType": "uint64",
          "name": "_destinationChainSelector",
          "type": "uint64"
        },
        {
          "internalType": "address",
          "name": "_receiver",
          "type": "address"
        },
        {
          "internalType": "string",
          "name": "_text",
          "type": "string"
        },
        {
          "internalType": "address",
          "name": "_token",
          "type": "address"
        },
        {
          "internalType": "uint256",
          "name": "_amount",
          "type": "uint256"
        }
      ],
      "name": "sendTokenPayNative",
      "outputs": [
        {
          "internalType": "bytes32",
          "name": "messageId",
          "type": "bytes32"
        }
      ],
      "stateMutability": "nonpayable",
      "type": "function"
    },
    {
      "inputs": [
        {
          "internalType": "address",
          "name": "to",
          "type": "address"
        }
      ],
      "name": "transferOwnership",
      "outputs": [],
      "stateMutability": "nonpayable",
      "type": "function"
    },
    {
      "inputs": [
        {
          "internalType": "uint256",
          "name": "amount",
          "type": "uint256"
        }
      ],
      "name": "unwrapAvaxToken",
      "outputs": [],
      "stateMutability": "payable",
      "type": "function"
    },
    {
      "inputs": [],
      "name": "wrapAvaxToken",
      "outputs": [],
      "stateMutability": "payable",
      "type": "function"
    },
    {
      "stateMutability": "payable",
      "type": "receive"
    }
  ],
  "bytecode": {
    "object": "0x60806040523480156200001157600080fd5b5060405162001e2d38038062001e2d8339810160408190526200003491620001de565b33806000816200008b5760405162461bcd60e51b815260206004820152601860248201527f43616e6e6f7420736574206f776e657220746f207a65726f000000000000000060448201526064015b60405180910390fd5b600080546001600160a01b0319166001600160a01b0384811691909117909155811615620000be57620000be8162000116565b5050600680546001600160a01b03199081166001600160a01b0396871617909155600780548216948616949094179093555060028054831691841691909117905560038054909116929091169190911790556200023b565b336001600160a01b03821603620001705760405162461bcd60e51b815260206004820152601760248201527f43616e6e6f74207472616e7366657220746f2073656c66000000000000000000604482015260640162000082565b600180546001600160a01b0319166001600160a01b0383811691821790925560008054604051929316917fed8889f560326eb138920d842192f0eb3dd22b4f139c87a2c57538e05bae12789190a350565b80516001600160a01b0381168114620001d957600080fd5b919050565b60008060008060808587031215620001f557600080fd5b6200020085620001c1565b93506200021060208601620001c1565b92506200022060408601620001c1565b91506200023060608601620001c1565b905092959194509250565b611be2806200024b6000396000f3fe6080604052600436106100a05760003560e01c80638d425982116100645780638d425982146101315780638da5cb5b1461015157806398dfa40b14610179578063aa84600a146101b9578063da95f579146101e9578063f2fde38b1461020957600080fd5b806301f16f12146100ac5780630af4ed17146100df5780632fe18faa146101015780636a4f7cc81461010957806379ba50971461011c57600080fd5b366100a757005b600080fd5b3480156100b857600080fd5b506100cc6100c736600461179d565b610229565b6040519081526020015b60405180910390f35b3480156100eb57600080fd5b506100ff6100fa366004611828565b61090c565b005b6100ff61093f565b6100ff61011736600461185f565b610a20565b34801561012857600080fd5b506100ff610c2e565b34801561013d57600080fd5b506100cc61014c36600461179d565b610cd8565b34801561015d57600080fd5b506000546040516001600160a01b0390911681526020016100d6565b34801561018557600080fd5b506101a9610194366004611878565b60046020526000908152604090205460ff1681565b60405190151581526020016100d6565b3480156101c557600080fd5b506101a96101d4366004611878565b60056020526000908152604090205460ff1681565b3480156101f557600080fd5b506100cc61020436600461189a565b611381565b34801561021557600080fd5b506100ff610224366004611929565b611477565b6001600160401b038616600090815260046020526040812054879060ff166102745760405163206abad760e01b81526001600160401b03821660048201526024015b60405180910390fd5b600061028588888888886000611488565b6003546040516320487ded60e01b81529192506001600160a01b03169060009082906320487ded906102bd908e90879060040161198a565b602060405180830381865afa1580156102da573d6000803e3d6000fd5b505050506040513d601f19601f820116820180604052508101906102fe9190611a66565b90504781111561032a57604051634787a10360e11b81524760048201526024810182905260440161026b565b6040516370a0823160e01b81523060048201526001600160a01b038816906370a0823190602401602060405180830381865afa15801561036e573d6000803e3d6000fd5b505050506040513d601f19601f820116820180604052508101906103929190611a66565b861115610426576040516370a0823160e01b81523060048201526001600160a01b038816906370a08231906024015b602060405180830381865afa1580156103de573d6000803e3d6000fd5b505050506040513d601f19601f820116820180604052508101906104029190611a66565b604051634787a10360e11b815260048101919091526024810187905260440161026b565b6007546040516370a0823160e01b81523360048201526001600160a01b03909116906370a0823190602401602060405180830381865afa15801561046e573d6000803e3d6000fd5b505050506040513d601f19601f820116820180604052508101906104929190611a66565b61049d600a83611a7f565b6104a79083611aa1565b1115610551576007546040516370a0823160e01b81523360048201526001600160a01b03909116906370a08231906024015b602060405180830381865afa1580156104f6573d6000803e3d6000fd5b505050506040513d601f19601f8201168201806040525081019061051a9190611a66565b610525600a83611a7f565b61052f9083611aa1565b604051634787a10360e11b81526004810192909252602482015260440161026b565b6040516370a0823160e01b81523360048201526001600160a01b038816906370a0823190602401602060405180830381865afa158015610595573d6000803e3d6000fd5b505050506040513d601f19601f820116820180604052508101906105b99190611a66565b8611156105ec576040516370a0823160e01b81523360048201526001600160a01b038816906370a08231906024016103c1565b60035460405163095ea7b360e01b81526001600160a01b039182166004820152602481018890529088169063095ea7b3906044016020604051808303816000875af115801561063f573d6000803e3d6000fd5b505050506040513d601f19601f820116820180604052508101906106639190611ac8565b506007546002546001600160a01b03918216916323b872dd9133911661068a600a86611a7f565b6040518463ffffffff1660e01b81526004016106a893929190611ae5565b6020604051808303816000875af11580156106c7573d6000803e3d6000fd5b505050506040513d601f19601f820116820180604052508101906106eb9190611ac8565b506007546040516323b872dd60e01b81526001600160a01b03909116906323b872dd9061072090339030908690600401611ae5565b6020604051808303816000875af115801561073f573d6000803e3d6000fd5b505050506040513d601f19601f820116820180604052508101906107639190611ac8565b50600754604051632e1a7d4d60e01b8152600481018390526001600160a01b0390911690632e1a7d4d90602401600060405180830381600087803b1580156107aa57600080fd5b505af11580156107be573d6000803e3d6000fd5b50506040516323b872dd60e01b81526001600160a01b038a1692506323b872dd91506107f290339030908b90600401611ae5565b6020604051808303816000875af1158015610811573d6000803e3d6000fd5b505050506040513d601f19601f820116820180604052508101906108359190611ac8565b506003546040516396f4e9f960e01b81526001600160a01b03909116906396f4e9f990839061086a908f90889060040161198a565b60206040518083038185885af1158015610888573d6000803e3d6000fd5b50505050506040513d601f19601f820116820180604052508101906108ad9190611a66565b94508a6001600160401b0316857f437cb3c5ba4364504dda6ba3c906ffb0897c7beeb1675f3aaf22a1b9a99b39948c8c8c8c8c6000896040516108f69796959493929190611b32565b60405180910390a3505050509695505050505050565b610914611624565b6001600160401b03919091166000908152600460205260409020805460ff1916911515919091179055565b600760009054906101000a90046001600160a01b03166001600160a01b031663d0e30db0346040518263ffffffff1660e01b81526004016000604051808303818588803b15801561098f57600080fd5b505af11580156109a3573d6000803e3d6000fd5b505060075460405163a9059cbb60e01b81523360048201523460248201526001600160a01b03909116935063a9059cbb925060440190506020604051808303816000875af11580156109f9573d6000803e3d6000fd5b505050506040513d601f19601f82011682018060405250810190610a1d9190611ac8565b50565b6007546040516370a0823160e01b81523360048201526001600160a01b03909116906370a0823190602401602060405180830381865afa158015610a68573d6000803e3d6000fd5b505050506040513d601f19601f82011682018060405250810190610a8c9190611a66565b811115610b24576007546040516370a0823160e01b81523360048201526001600160a01b03909116906370a08231906024015b602060405180830381865afa158015610adc573d6000803e3d6000fd5b505050506040513d601f19601f82011682018060405250810190610b009190611a66565b604051634787a10360e11b815260048101919091526024810182905260440161026b565b6007546040516323b872dd60e01b81526001600160a01b03909116906323b872dd90610b5890339030908690600401611ae5565b6020604051808303816000875af1158015610b77573d6000803e3d6000fd5b505050506040513d601f19601f82011682018060405250810190610b9b9190611ac8565b50600754604051632e1a7d4d60e01b8152600481018390526001600160a01b0390911690632e1a7d4d90602401600060405180830381600087803b158015610be257600080fd5b505af1158015610bf6573d6000803e3d6000fd5b505060405133925082915083156108fc029084906000818181858888f19350505050158015610c29573d6000803e3d6000fd5b505050565b6001546001600160a01b03163314610c815760405162461bcd60e51b815260206004820152601660248201527526bab9ba10313290383937b837b9b2b21037bbb732b960511b604482015260640161026b565b60008054336001600160a01b0319808316821784556001805490911690556040516001600160a01b0390921692909183917f8be0079c531659141344cd1fd0a4f28419497f9722a3daafe3b4186f6b6457e091a350565b6001600160401b038616600090815260046020526040812054879060ff16610d1e5760405163206abad760e01b81526001600160401b038216600482015260240161026b565b6000610d438888888888600660009054906101000a90046001600160a01b0316611488565b6003546040516320487ded60e01b81529192506001600160a01b03169060009082906320487ded90610d7b908e90879060040161198a565b602060405180830381865afa158015610d98573d6000803e3d6000fd5b505050506040513d601f19601f82011682018060405250810190610dbc9190611a66565b6006546040516370a0823160e01b81523060048201529192506001600160a01b0316906370a0823190602401602060405180830381865afa158015610e05573d6000803e3d6000fd5b505050506040513d601f19601f82011682018060405250810190610e299190611a66565b811115610e60576006546040516370a0823160e01b81523060048201526001600160a01b03909116906370a0823190602401610abf565b6040516370a0823160e01b81523060048201526001600160a01b038816906370a0823190602401602060405180830381865afa158015610ea4573d6000803e3d6000fd5b505050506040513d601f19601f82011682018060405250810190610ec89190611a66565b861115610efb576040516370a0823160e01b81523060048201526001600160a01b038816906370a08231906024016103c1565b6006546040516370a0823160e01b81523360048201526001600160a01b03909116906370a0823190602401602060405180830381865afa158015610f43573d6000803e3d6000fd5b505050506040513d601f19601f82011682018060405250810190610f679190611a66565b610f72600a83611a7f565b610f7c9083611aa1565b1115610fb2576006546040516370a0823160e01b81523360048201526001600160a01b03909116906370a08231906024016104d9565b6040516370a0823160e01b81523360048201526001600160a01b038816906370a0823190602401602060405180830381865afa158015610ff6573d6000803e3d6000fd5b505050506040513d601f19601f8201168201806040525081019061101a9190611a66565b86111561104d576040516370a0823160e01b81523360048201526001600160a01b038816906370a08231906024016103c1565b60065460035460405163095ea7b360e01b81526001600160a01b0391821660048201526024810184905291169063095ea7b3906044016020604051808303816000875af11580156110a2573d6000803e3d6000fd5b505050506040513d601f19601f820116820180604052508101906110c69190611ac8565b5060035460405163095ea7b360e01b81526001600160a01b039182166004820152602481018890529088169063095ea7b3906044016020604051808303816000875af115801561111a573d6000803e3d6000fd5b505050506040513d601f19601f8201168201806040525081019061113e9190611ac8565b506006546002546001600160a01b03918216916323b872dd91339116611165600a86611a7f565b6040518463ffffffff1660e01b815260040161118393929190611ae5565b6020604051808303816000875af11580156111a2573d6000803e3d6000fd5b505050506040513d601f19601f820116820180604052508101906111c69190611ac8565b506006546040516323b872dd60e01b81526001600160a01b03909116906323b872dd906111fb90339030908690600401611ae5565b6020604051808303816000875af115801561121a573d6000803e3d6000fd5b505050506040513d601f19601f8201168201806040525081019061123e9190611ac8565b506040516323b872dd60e01b81526001600160a01b038816906323b872dd9061126f90339030908b90600401611ae5565b6020604051808303816000875af115801561128e573d6000803e3d6000fd5b505050506040513d601f19601f820116820180604052508101906112b29190611ac8565b506003546040516396f4e9f960e01b81526001600160a01b03909116906396f4e9f9906112e5908e90879060040161198a565b6020604051808303816000875af1158015611304573d6000803e3d6000fd5b505050506040513d601f19601f820116820180604052508101906113289190611a66565b6006546040519196506001600160401b038d169187917f437cb3c5ba4364504dda6ba3c906ffb0897c7beeb1675f3aaf22a1b9a99b3994916108f6918f918f918f918f918f916001600160a01b03909116908b90611b32565b6001600160401b038716600090815260046020526040812054889060ff166113c75760405163206abad760e01b81526001600160401b038216600482015260240161026b565b60006113d789898988888b611488565b6003546040516320487ded60e01b81529192506001600160a01b03169060009082906320487ded9061140f908f90879060040161198a565b602060405180830381865afa15801561142c573d6000803e3d6000fd5b505050506040513d601f19601f820116820180604052508101906114509190611a66565b905061145d600a82611a7f565b6114679082611aa1565b9c9b505050505050505050505050565b61147f611624565b610a1d81611679565b6114c36040518060a0016040528060608152602001606081526020016060815260200160006001600160a01b03168152602001606081525090565b604080516001808252818301909252600091816020015b60408051808201909152600080825260208201528152602001906001900390816114da5790505090506040518060400160405280866001600160a01b03168152602001858152508160008151811061153457611534611b7a565b60209081029190910101526040805160a081019091526001600160a01b03891660c08201528060e0810160405160208183030381529060405281526020018888604051602001611585929190611b90565b6040516020818303038152906040528152602001828152602001846001600160a01b03168152602001611616604051806040016040528062030d408152602001600015158152506040805182516024820152602092830151151560448083019190915282518083039091018152606490910190915290810180516001600160e01b03166397a657c960e01b17905290565b905298975050505050505050565b6000546001600160a01b031633146116775760405162461bcd60e51b815260206004820152601660248201527527b7363c9031b0b63630b1363290313c9037bbb732b960511b604482015260640161026b565b565b336001600160a01b038216036116d15760405162461bcd60e51b815260206004820152601760248201527f43616e6e6f74207472616e7366657220746f2073656c66000000000000000000604482015260640161026b565b600180546001600160a01b0319166001600160a01b0383811691821790925560008054604051929316917fed8889f560326eb138920d842192f0eb3dd22b4f139c87a2c57538e05bae12789190a350565b80356001600160401b038116811461173957600080fd5b919050565b80356001600160a01b038116811461173957600080fd5b60008083601f84011261176757600080fd5b5081356001600160401b0381111561177e57600080fd5b60208301915083602082850101111561179657600080fd5b9250929050565b60008060008060008060a087890312156117b657600080fd5b6117bf87611722565b95506117cd6020880161173e565b945060408701356001600160401b038111156117e857600080fd5b6117f489828a01611755565b909550935061180790506060880161173e565b9150608087013590509295509295509295565b8015158114610a1d57600080fd5b6000806040838503121561183b57600080fd5b61184483611722565b915060208301356118548161181a565b809150509250929050565b60006020828403121561187157600080fd5b5035919050565b60006020828403121561188a57600080fd5b61189382611722565b9392505050565b600080600080600080600060c0888a0312156118b557600080fd5b6118be88611722565b96506118cc6020890161173e565b955060408801356001600160401b038111156118e757600080fd5b6118f38a828b01611755565b909650945061190690506060890161173e565b92506119146080890161173e565b915060a0880135905092959891949750929550565b60006020828403121561193b57600080fd5b6118938261173e565b6000815180845260005b8181101561196a5760208185018101518683018201520161194e565b506000602082860101526020601f19601f83011685010191505092915050565b600060406001600160401b03851683526020604081850152845160a060408601526119b860e0860182611944565b905081860151603f19808784030160608801526119d58383611944565b6040890151888203830160808a01528051808352908601945060009350908501905b80841015611a2957845180516001600160a01b03168352860151868301529385019360019390930192908601906119f7565b5060608901516001600160a01b031660a08901526080890151888203830160c08a01529550611a588187611944565b9a9950505050505050505050565b600060208284031215611a7857600080fd5b5051919050565b600082611a9c57634e487b7160e01b600052601260045260246000fd5b500490565b80820180821115611ac257634e487b7160e01b600052601160045260246000fd5b92915050565b600060208284031215611ada57600080fd5b81516118938161181a565b6001600160a01b039384168152919092166020820152604081019190915260600190565b81835281816020850137506000828201602090810191909152601f909101601f19169091010190565b600060018060a01b03808a16835260c06020840152611b5560c08401898b611b09565b968116604084015260608301959095525091909216608082015260a001529392505050565b634e487b7160e01b600052603260045260246000fd5b602081526000611ba4602083018486611b09565b94935050505056fea2646970667358221220cae36818bbb5ae5c57180388bdc1de300bf1cd0c83ddb488aa52c60bf4ae845064736f6c63430008160033",
    "linkReferences": {}
  },
  "methodIdentifiers": {
    "acceptOwnership()": "79ba5097",
    "allowListDestinationChain(uint64,bool)": "0af4ed17",
    "allowListedDestinationChains(uint64)": "98dfa40b",
    "allowListedSourceChains(uint64)": "aa84600a",
    "getFeePrediction(uint64,address,string,address,address,uint256)": "da95f579",
    "owner()": "8da5cb5b",
    "sendTokenPayLink(uint64,address,string,address,uint256)": "8d425982",
    "sendTokenPayNative(uint64,address,string,address,uint256)": "01f16f12",
    "transferOwnership(address)": "f2fde38b",
    "unwrapAvaxToken(uint256)": "6a4f7cc8",
    "wrapAvaxToken()": "2fe18faa"
  },
  "id": 29
}