{
  "abi": [
    {
      "inputs": [
        {
          "internalType": "address",
          "name": "_router",
          "type": "address"
        },
        {
          "internalType": "address",
          "name": "_link",
          "type": "address"
        },
        {
          "internalType": "address",
          "name": "_nativeToken",
          "type": "address"
        },
        {
          "internalType": "address",
          "name": "_platform",
          "type": "address"
        }
      ],
      "stateMutability": "nonpayable",
      "type": "constructor"
    },
    {
      "inputs": [
        {
          "internalType": "uint64",
          "name": "destinationChainSelector",
          "type": "uint64"
        }
      ],
      "name": "DestinationChainNotAllowed",
      "type": "error"
    },
    {
      "inputs": [
        {
          "internalType": "address",
          "name": "owner",
          "type": "address"
        },
        {
          "internalType": "address",
          "name": "target",
          "type": "address"
        },
        {
          "internalType": "uint256",
          "name": "value",
          "type": "uint256"
        }
      ],
      "name": "FailedToWithdrawEth",
      "type": "error"
    },
    {
      "inputs": [
        {
          "internalType": "address",
          "name": "router",
          "type": "address"
        }
      ],
      "name": "InvalidRouter",
      "type": "error"
    },
    {
      "inputs": [
        {
          "internalType": "uint256",
          "name": "currentBalance",
          "type": "uint256"
        },
        {
          "internalType": "uint256",
          "name": "calculatedFees",
          "type": "uint256"
        }
      ],
      "name": "NotEnoughBalance",
      "type": "error"
    },
    {
      "inputs": [],
      "name": "NothingToWithdraw",
      "type": "error"
    },
    {
      "inputs": [
        {
          "internalType": "address",
          "name": "sender",
          "type": "address"
        }
      ],
      "name": "SenderNotAllowed",
      "type": "error"
    },
    {
      "inputs": [
        {
          "internalType": "uint64",
          "name": "sourceChainSelector",
          "type": "uint64"
        }
      ],
      "name": "SourceChainNotAllowed",
      "type": "error"
    },
    {
      "anonymous": false,
      "inputs": [
        {
          "indexed": true,
          "internalType": "bytes32",
          "name": "messageId",
          "type": "bytes32"
        },
        {
          "indexed": true,
          "internalType": "uint64",
          "name": "sourceChainSelector",
          "type": "uint64"
        },
        {
          "indexed": false,
          "internalType": "address",
          "name": "senser",
          "type": "address"
        },
        {
          "indexed": false,
          "internalType": "string",
          "name": "text",
          "type": "string"
        },
        {
          "indexed": false,
          "internalType": "address",
          "name": "token",
          "type": "address"
        },
        {
          "indexed": false,
          "internalType": "uint256",
          "name": "tokenAmount",
          "type": "uint256"
        }
      ],
      "name": "MessageReceived",
      "type": "event"
    },
    {
      "anonymous": false,
      "inputs": [
        {
          "indexed": true,
          "internalType": "bytes32",
          "name": "messageId",
          "type": "bytes32"
        },
        {
          "indexed": true,
          "internalType": "uint64",
          "name": "destinationChainSelector",
          "type": "uint64"
        },
        {
          "indexed": false,
          "internalType": "address",
          "name": "receiver",
          "type": "address"
        },
        {
          "indexed": false,
          "internalType": "string",
          "name": "text",
          "type": "string"
        },
        {
          "indexed": false,
          "internalType": "address",
          "name": "token",
          "type": "address"
        },
        {
          "indexed": false,
          "internalType": "uint256",
          "name": "tokenAmount",
          "type": "uint256"
        },
        {
          "indexed": false,
          "internalType": "address",
          "name": "feeToken",
          "type": "address"
        },
        {
          "indexed": false,
          "internalType": "uint256",
          "name": "fees",
          "type": "uint256"
        }
      ],
      "name": "MessageSent",
      "type": "event"
    },
    {
      "anonymous": false,
      "inputs": [
        {
          "indexed": true,
          "internalType": "address",
          "name": "from",
          "type": "address"
        },
        {
          "indexed": true,
          "internalType": "address",
          "name": "to",
          "type": "address"
        }
      ],
      "name": "OwnershipTransferRequested",
      "type": "event"
    },
    {
      "anonymous": false,
      "inputs": [
        {
          "indexed": true,
          "internalType": "address",
          "name": "from",
          "type": "address"
        },
        {
          "indexed": true,
          "internalType": "address",
          "name": "to",
          "type": "address"
        }
      ],
      "name": "OwnershipTransferred",
      "type": "event"
    },
    {
      "inputs": [],
      "name": "acceptOwnership",
      "outputs": [],
      "stateMutability": "nonpayable",
      "type": "function"
    },
    {
      "inputs": [
        {
          "internalType": "uint64",
          "name": "_destinationChainSelector",
          "type": "uint64"
        },
        {
          "internalType": "bool",
          "name": "allowed",
          "type": "bool"
        }
      ],
      "name": "allowListDestinationChain",
      "outputs": [],
      "stateMutability": "nonpayable",
      "type": "function"
    },
    {
      "inputs": [
        {
          "internalType": "uint64",
          "name": "_sourceChainSelector",
          "type": "uint64"
        },
        {
          "internalType": "bool",
          "name": "allowed",
          "type": "bool"
        }
      ],
      "name": "allowListSourceChain",
      "outputs": [],
      "stateMutability": "nonpayable",
      "type": "function"
    },
    {
      "inputs": [
        {
          "internalType": "uint64",
          "name": "",
          "type": "uint64"
        }
      ],
      "name": "allowListedDestinationChains",
      "outputs": [
        {
          "internalType": "bool",
          "name": "",
          "type": "bool"
        }
      ],
      "stateMutability": "view",
      "type": "function"
    },
    {
      "inputs": [
        {
          "internalType": "uint64",
          "name": "",
          "type": "uint64"
        }
      ],
      "name": "allowListedSourceChains",
      "outputs": [
        {
          "internalType": "bool",
          "name": "",
          "type": "bool"
        }
      ],
      "stateMutability": "view",
      "type": "function"
    },
    {
      "inputs": [
        {
          "components": [
            {
              "internalType": "bytes32",
              "name": "messageId",
              "type": "bytes32"
            },
            {
              "internalType": "uint64",
              "name": "sourceChainSelector",
              "type": "uint64"
            },
            {
              "internalType": "bytes",
              "name": "sender",
              "type": "bytes"
            },
            {
              "internalType": "bytes",
              "name": "data",
              "type": "bytes"
            },
            {
              "components": [
                {
                  "internalType": "address",
                  "name": "token",
                  "type": "address"
                },
                {
                  "internalType": "uint256",
                  "name": "amount",
                  "type": "uint256"
                }
              ],
              "internalType": "struct Client.EVMTokenAmount[]",
              "name": "destTokenAmounts",
              "type": "tuple[]"
            }
          ],
          "internalType": "struct Client.Any2EVMMessage",
          "name": "message",
          "type": "tuple"
        }
      ],
      "name": "ccipReceive",
      "outputs": [],
      "stateMutability": "nonpayable",
      "type": "function"
    },
    {
      "inputs": [
        {
          "internalType": "uint64",
          "name": "_destinationChainSelector",
          "type": "uint64"
        },
        {
          "internalType": "address",
          "name": "_receiver",
          "type": "address"
        },
        {
          "internalType": "string",
          "name": "_text",
          "type": "string"
        },
        {
          "internalType": "address",
          "name": "_token_fees",
          "type": "address"
        },
        {
          "internalType": "address",
          "name": "_token",
          "type": "address"
        },
        {
          "internalType": "uint256",
          "name": "_amount",
          "type": "uint256"
        }
      ],
      "name": "getFeePrediction",
      "outputs": [
        {
          "internalType": "uint256",
          "name": "",
          "type": "uint256"
        }
      ],
      "stateMutability": "view",
      "type": "function"
    },
    {
      "inputs": [],
      "name": "getLastReceivedMessageDetails",
      "outputs": [
        {
          "internalType": "bytes32",
          "name": "messageId",
          "type": "bytes32"
        },
        {
          "internalType": "string",
          "name": "text",
          "type": "string"
        },
        {
          "internalType": "address",
          "name": "tokenAddress",
          "type": "address"
        },
        {
          "internalType": "uint256",
          "name": "tokenAmount",
          "type": "uint256"
        }
      ],
      "stateMutability": "view",
      "type": "function"
    },
    {
      "inputs": [],
      "name": "getRouter",
      "outputs": [
        {
          "internalType": "address",
          "name": "",
          "type": "address"
        }
      ],
      "stateMutability": "view",
      "type": "function"
    },
    {
      "inputs": [],
      "name": "owner",
      "outputs": [
        {
          "internalType": "address",
          "name": "",
          "type": "address"
        }
      ],
      "stateMutability": "view",
      "type": "function"
    },
    {
      "inputs": [
        {
          "internalType": "uint64",
          "name": "_destinationChainSelector",
          "type": "uint64"
        },
        {
          "internalType": "address",
          "name": "_receiver",
          "type": "address"
        },
        {
          "internalType": "string",
          "name": "_text",
          "type": "string"
        },
        {
          "internalType": "address",
          "name": "_token",
          "type": "address"
        },
        {
          "internalType": "uint256",
          "name": "_amount",
          "type": "uint256"
        }
      ],
      "name": "sendTokenPayLink",
      "outputs": [
        {
          "internalType": "bytes32",
          "name": "messageId",
          "type": "bytes32"
        }
      ],
      "stateMutability": "nonpayable",
      "type": "function"
    },
    {
      "inputs": [
        {
          "internalType": "uint64",
          "name": "_destinationChainSelector",
          "type": "uint64"
        },
        {
          "internalType": "address",
          "name": "_receiver",
          "type": "address"
        },
        {
          "internalType": "string",
          "name": "_text",
          "type": "string"
        },
        {
          "internalType": "address",
          "name": "_token",
          "type": "address"
        },
        {
          "internalType": "uint256",
          "name": "_amount",
          "type": "uint256"
        }
      ],
      "name": "sendTokenPayNative",
      "outputs": [
        {
          "internalType": "bytes32",
          "name": "messageId",
          "type": "bytes32"
        }
      ],
      "stateMutability": "nonpayable",
      "type": "function"
    },
    {
      "inputs": [
        {
          "internalType": "bytes4",
          "name": "interfaceId",
          "type": "bytes4"
        }
      ],
      "name": "supportsInterface",
      "outputs": [
        {
          "internalType": "bool",
          "name": "",
          "type": "bool"
        }
      ],
      "stateMutability": "pure",
      "type": "function"
    },
    {
      "inputs": [
        {
          "internalType": "address",
          "name": "to",
          "type": "address"
        }
      ],
      "name": "transferOwnership",
      "outputs": [],
      "stateMutability": "nonpayable",
      "type": "function"
    },
    {
      "inputs": [
        {
          "internalType": "uint256",
          "name": "amount",
          "type": "uint256"
        }
      ],
      "name": "unwrapAvaxToken",
      "outputs": [],
      "stateMutability": "payable",
      "type": "function"
    },
    {
      "inputs": [
        {
          "internalType": "address",
          "name": "_beneficiary",
          "type": "address"
        }
      ],
      "name": "withdraw",
      "outputs": [],
      "stateMutability": "nonpayable",
      "type": "function"
    },
    {
      "inputs": [
        {
          "internalType": "address",
          "name": "_beneficiary",
          "type": "address"
        },
        {
          "internalType": "address",
          "name": "_token",
          "type": "address"
        }
      ],
      "name": "withdrawToken",
      "outputs": [],
      "stateMutability": "nonpayable",
      "type": "function"
    },
    {
      "inputs": [],
      "name": "wrapAvaxToken",
      "outputs": [],
      "stateMutability": "payable",
      "type": "function"
    },
    {
      "stateMutability": "payable",
      "type": "receive"
    }
  ],
  "bytecode": {
    "object": "0x60a06040523480156200001157600080fd5b5060405162002aca38038062002aca833981016040819052620000349162000209565b33806000866001600160a01b03811662000069576040516335fdcccd60e21b8152600060048201526024015b60405180910390fd5b6001600160a01b039081166080528216620000c75760405162461bcd60e51b815260206004820152601860248201527f43616e6e6f7420736574206f776e657220746f207a65726f0000000000000000604482015260640162000060565b600080546001600160a01b0319166001600160a01b0384811691909117909155811615620000fa57620000fa8162000141565b5050600980546001600160a01b039586166001600160a01b031991821617909155600a80549486169482169490941790935550600680549190931691161790555062000266565b336001600160a01b038216036200019b5760405162461bcd60e51b815260206004820152601760248201527f43616e6e6f74207472616e7366657220746f2073656c66000000000000000000604482015260640162000060565b600180546001600160a01b0319166001600160a01b0383811691821790925560008054604051929316917fed8889f560326eb138920d842192f0eb3dd22b4f139c87a2c57538e05bae12789190a350565b80516001600160a01b03811681146200020457600080fd5b919050565b600080600080608085870312156200022057600080fd5b6200022b85620001ec565b93506200023b60208601620001ec565b92506200024b60408601620001ec565b91506200025b60608601620001ec565b905092959194509250565b6080516128416200028960003960008181610314015261113501526128416000f3fe60806040526004361061010d5760003560e01c806385572ffb11610095578063aa1a114a11610064578063aa1a114a1461017c578063aa84600a146102d5578063b0f479a114610305578063da95f57914610338578063f2fde38b1461035857600080fd5b806385572ffb146102335780638d425982146102535780638da5cb5b1461027357806398dfa40b146102a557600080fd5b80632fe18faa116100dc5780632fe18faa146101c35780633aeac4e1146101cb57806351cff8d9146101eb5780636a4f7cc81461020b57806379ba50971461021e57600080fd5b806301f16f121461011957806301ffc9a71461014c5780630af4ed171461017c578063263596a51461019e57600080fd5b3661011457005b600080fd5b34801561012557600080fd5b50610139610134366004611eae565b610378565b6040519081526020015b60405180910390f35b34801561015857600080fd5b5061016c610167366004611f30565b610ab4565b6040519015158152602001610143565b34801561018857600080fd5b5061019c610197366004611f6f565b610aeb565b005b3480156101aa57600080fd5b506101b3610b1e565b6040516101439493929190611ff6565b61019c610bdd565b3480156101d757600080fd5b5061019c6101e636600461202b565b610cbe565b3480156101f757600080fd5b5061019c610206366004612059565b610dcd565b61019c610219366004612076565b610e77565b34801561022a57600080fd5b5061019c611080565b34801561023f57600080fd5b5061019c61024e36600461208f565b61112a565b34801561025f57600080fd5b5061013961026e366004611eae565b611186565b34801561027f57600080fd5b506000546001600160a01b03165b6040516001600160a01b039091168152602001610143565b3480156102b157600080fd5b5061016c6102c03660046120c9565b60076020526000908152604090205460ff1681565b3480156102e157600080fd5b5061016c6102f03660046120c9565b60086020526000908152604090205460ff1681565b34801561031157600080fd5b507f000000000000000000000000000000000000000000000000000000000000000061028d565b34801561034457600080fd5b506101396103533660046120e4565b611885565b34801561036457600080fd5b5061019c610373366004612059565b6119db565b6001600160401b038616600090815260076020526040812054879060ff166103c35760405163206abad760e01b81526001600160401b03821660048201526024015b60405180910390fd5b60006103d4888888888860006119ec565b90506000306001600160a01b031663b0f479a16040518163ffffffff1660e01b8152600401602060405180830381865afa158015610416573d6000803e3d6000fd5b505050506040513d601f19601f8201168201806040525081019061043a919061217a565b90506000816001600160a01b03166320487ded8c856040518363ffffffff1660e01b815260040161046c929190612197565b602060405180830381865afa158015610489573d6000803e3d6000fd5b505050506040513d601f19601f820116820180604052508101906104ad9190612273565b9050478111156104d957604051634787a10360e11b8152476004820152602481018290526044016103ba565b6040516370a0823160e01b81523060048201526001600160a01b038816906370a0823190602401602060405180830381865afa15801561051d573d6000803e3d6000fd5b505050506040513d601f19601f820116820180604052508101906105419190612273565b8611156105d5576040516370a0823160e01b81523060048201526001600160a01b038816906370a08231906024015b602060405180830381865afa15801561058d573d6000803e3d6000fd5b505050506040513d601f19601f820116820180604052508101906105b19190612273565b604051634787a10360e11b81526004810191909152602481018790526044016103ba565b600a546040516370a0823160e01b81523360048201526001600160a01b03909116906370a0823190602401602060405180830381865afa15801561061d573d6000803e3d6000fd5b505050506040513d601f19601f820116820180604052508101906106419190612273565b61064c600a8361228c565b61065690836122ae565b111561070057600a546040516370a0823160e01b81523360048201526001600160a01b03909116906370a08231906024015b602060405180830381865afa1580156106a5573d6000803e3d6000fd5b505050506040513d601f19601f820116820180604052508101906106c99190612273565b6106d4600a8361228c565b6106de90836122ae565b604051634787a10360e11b8152600481019290925260248201526044016103ba565b6040516370a0823160e01b81523360048201526001600160a01b038816906370a0823190602401602060405180830381865afa158015610744573d6000803e3d6000fd5b505050506040513d601f19601f820116820180604052508101906107689190612273565b86111561079b576040516370a0823160e01b81523360048201526001600160a01b038816906370a0823190602401610570565b60405163095ea7b360e01b81526001600160a01b0383811660048301526024820188905288169063095ea7b3906044016020604051808303816000875af11580156107ea573d6000803e3d6000fd5b505050506040513d601f19601f8201168201806040525081019061080e91906122cf565b50600a80546006546001600160a01b03918216926323b872dd9233921690610836908661228c565b6040518463ffffffff1660e01b8152600401610854939291906122ec565b6020604051808303816000875af1158015610873573d6000803e3d6000fd5b505050506040513d601f19601f8201168201806040525081019061089791906122cf565b50600a546040516323b872dd60e01b81526001600160a01b03909116906323b872dd906108cc903390309086906004016122ec565b6020604051808303816000875af11580156108eb573d6000803e3d6000fd5b505050506040513d601f19601f8201168201806040525081019061090f91906122cf565b50600a54604051632e1a7d4d60e01b8152600481018390526001600160a01b0390911690632e1a7d4d90602401600060405180830381600087803b15801561095657600080fd5b505af115801561096a573d6000803e3d6000fd5b50506040516323b872dd60e01b81526001600160a01b038a1692506323b872dd915061099e90339030908b906004016122ec565b6020604051808303816000875af11580156109bd573d6000803e3d6000fd5b505050506040513d601f19601f820116820180604052508101906109e191906122cf565b506040516396f4e9f960e01b81526001600160a01b038316906396f4e9f9908390610a12908f908890600401612197565b60206040518083038185885af1158015610a30573d6000803e3d6000fd5b50505050506040513d601f19601f82011682018060405250810190610a559190612273565b94508a6001600160401b0316857f437cb3c5ba4364504dda6ba3c906ffb0897c7beeb1675f3aaf22a1b9a99b39948c8c8c8c8c600089604051610a9e9796959493929190612339565b60405180910390a3505050509695505050505050565b60006001600160e01b031982166385572ffb60e01b1480610ae557506001600160e01b031982166301ffc9a760e01b145b92915050565b610af3611b88565b6001600160401b03919091166000908152600760205260409020805460ff1916911515919091179055565b600060606000806002546005600360009054906101000a90046001600160a01b0316600454828054610b4f90612381565b80601f0160208091040260200160405190810160405280929190818152602001828054610b7b90612381565b8015610bc85780601f10610b9d57610100808354040283529160200191610bc8565b820191906000526020600020905b815481529060010190602001808311610bab57829003601f168201915b50505050509250935093509350935090919293565b600a60009054906101000a90046001600160a01b03166001600160a01b031663d0e30db0346040518263ffffffff1660e01b81526004016000604051808303818588803b158015610c2d57600080fd5b505af1158015610c41573d6000803e3d6000fd5b5050600a5460405163a9059cbb60e01b81523360048201523460248201526001600160a01b03909116935063a9059cbb925060440190506020604051808303816000875af1158015610c97573d6000803e3d6000fd5b505050506040513d601f19601f82011682018060405250810190610cbb91906122cf565b50565b610cc6611b88565b6040516370a0823160e01b81523060048201526000906001600160a01b038316906370a0823190602401602060405180830381865afa158015610d0d573d6000803e3d6000fd5b505050506040513d601f19601f82011682018060405250810190610d319190612273565b905080600003610d5457604051630686827b60e51b815260040160405180910390fd5b60405163a9059cbb60e01b81526001600160a01b0384811660048301526024820183905283169063a9059cbb906044016020604051808303816000875af1158015610da3573d6000803e3d6000fd5b505050506040513d601f19601f82011682018060405250810190610dc791906122cf565b50505050565b610dd5611b88565b476000819003610df857604051630686827b60e51b815260040160405180910390fd5b6000826001600160a01b03168260405160006040518083038185875af1925050503d8060008114610e45576040519150601f19603f3d011682016040523d82523d6000602084013e610e4a565b606091505b5050905080610e7257338383604051639d11f56360e01b81526004016103ba939291906122ec565b505050565b600a546040516370a0823160e01b81523360048201526001600160a01b03909116906370a0823190602401602060405180830381865afa158015610ebf573d6000803e3d6000fd5b505050506040513d601f19601f82011682018060405250810190610ee39190612273565b811115610f7b57600a546040516370a0823160e01b81523360048201526001600160a01b03909116906370a08231906024015b602060405180830381865afa158015610f33573d6000803e3d6000fd5b505050506040513d601f19601f82011682018060405250810190610f579190612273565b604051634787a10360e11b81526004810191909152602481018290526044016103ba565b600a546040516323b872dd60e01b81526001600160a01b03909116906323b872dd90610faf903390309086906004016122ec565b6020604051808303816000875af1158015610fce573d6000803e3d6000fd5b505050506040513d601f19601f82011682018060405250810190610ff291906122cf565b50600a54604051632e1a7d4d60e01b8152600481018390526001600160a01b0390911690632e1a7d4d90602401600060405180830381600087803b15801561103957600080fd5b505af115801561104d573d6000803e3d6000fd5b505060405133925082915083156108fc029084906000818181858888f19350505050158015610e72573d6000803e3d6000fd5b6001546001600160a01b031633146110d35760405162461bcd60e51b815260206004820152601660248201527526bab9ba10313290383937b837b9b2b21037bbb732b960511b60448201526064016103ba565b60008054336001600160a01b0319808316821784556001805490911690556040516001600160a01b0390921692909183917f8be0079c531659141344cd1fd0a4f28419497f9722a3daafe3b4186f6b6457e091a350565b336001600160a01b037f00000000000000000000000000000000000000000000000000000000000000001614611175576040516335fdcccd60e21b81523360048201526024016103ba565b610cbb61118182612574565b611bdd565b6001600160401b038616600090815260076020526040812054879060ff166111cc5760405163206abad760e01b81526001600160401b03821660048201526024016103ba565b60006111f18888888888600960009054906101000a90046001600160a01b03166119ec565b90506000306001600160a01b031663b0f479a16040518163ffffffff1660e01b8152600401602060405180830381865afa158015611233573d6000803e3d6000fd5b505050506040513d601f19601f82011682018060405250810190611257919061217a565b90506000816001600160a01b03166320487ded8c856040518363ffffffff1660e01b8152600401611289929190612197565b602060405180830381865afa1580156112a6573d6000803e3d6000fd5b505050506040513d601f19601f820116820180604052508101906112ca9190612273565b6009546040516370a0823160e01b81523060048201529192506001600160a01b0316906370a0823190602401602060405180830381865afa158015611313573d6000803e3d6000fd5b505050506040513d601f19601f820116820180604052508101906113379190612273565b81111561136e576009546040516370a0823160e01b81523060048201526001600160a01b03909116906370a0823190602401610f16565b6040516370a0823160e01b81523060048201526001600160a01b038816906370a0823190602401602060405180830381865afa1580156113b2573d6000803e3d6000fd5b505050506040513d601f19601f820116820180604052508101906113d69190612273565b861115611409576040516370a0823160e01b81523060048201526001600160a01b038816906370a0823190602401610570565b6009546040516370a0823160e01b81523360048201526001600160a01b03909116906370a0823190602401602060405180830381865afa158015611451573d6000803e3d6000fd5b505050506040513d601f19601f820116820180604052508101906114759190612273565b611480600a8361228c565b61148a90836122ae565b11156114c0576009546040516370a0823160e01b81523360048201526001600160a01b03909116906370a0823190602401610688565b6040516370a0823160e01b81523360048201526001600160a01b038816906370a0823190602401602060405180830381865afa158015611504573d6000803e3d6000fd5b505050506040513d601f19601f820116820180604052508101906115289190612273565b86111561155b576040516370a0823160e01b81523360048201526001600160a01b038816906370a0823190602401610570565b60095460405163095ea7b360e01b81526001600160a01b038481166004830152602482018490529091169063095ea7b3906044016020604051808303816000875af11580156115ae573d6000803e3d6000fd5b505050506040513d601f19601f820116820180604052508101906115d291906122cf565b5060405163095ea7b360e01b81526001600160a01b0383811660048301526024820188905288169063095ea7b3906044016020604051808303816000875af1158015611622573d6000803e3d6000fd5b505050506040513d601f19601f8201168201806040525081019061164691906122cf565b506009546006546001600160a01b03918216916323b872dd9133911661166d600a8661228c565b6040518463ffffffff1660e01b815260040161168b939291906122ec565b6020604051808303816000875af11580156116aa573d6000803e3d6000fd5b505050506040513d601f19601f820116820180604052508101906116ce91906122cf565b506009546040516323b872dd60e01b81526001600160a01b03909116906323b872dd90611703903390309086906004016122ec565b6020604051808303816000875af1158015611722573d6000803e3d6000fd5b505050506040513d601f19601f8201168201806040525081019061174691906122cf565b506040516323b872dd60e01b81526001600160a01b038816906323b872dd9061177790339030908b906004016122ec565b6020604051808303816000875af1158015611796573d6000803e3d6000fd5b505050506040513d601f19601f820116820180604052508101906117ba91906122cf565b506040516396f4e9f960e01b81526001600160a01b038316906396f4e9f9906117e9908e908790600401612197565b6020604051808303816000875af1158015611808573d6000803e3d6000fd5b505050506040513d601f19601f8201168201806040525081019061182c9190612273565b6009546040519196506001600160401b038d169187917f437cb3c5ba4364504dda6ba3c906ffb0897c7beeb1675f3aaf22a1b9a99b399491610a9e918f918f918f918f918f916001600160a01b03909116908b90612339565b6001600160401b038716600090815260076020526040812054889060ff166118cb5760405163206abad760e01b81526001600160401b03821660048201526024016103ba565b60006118db89898988888b6119ec565b90506000306001600160a01b031663b0f479a16040518163ffffffff1660e01b8152600401602060405180830381865afa15801561191d573d6000803e3d6000fd5b505050506040513d601f19601f82011682018060405250810190611941919061217a565b90506000816001600160a01b03166320487ded8d856040518363ffffffff1660e01b8152600401611973929190612197565b602060405180830381865afa158015611990573d6000803e3d6000fd5b505050506040513d601f19601f820116820180604052508101906119b49190612273565b90506119c1600a8261228c565b6119cb90826122ae565b9c9b505050505050505050505050565b6119e3611b88565b610cbb81611d8c565b611a276040518060a0016040528060608152602001606081526020016060815260200160006001600160a01b03168152602001606081525090565b604080516001808252818301909252600091816020015b6040805180820190915260008082526020820152815260200190600190039081611a3e5790505090506040518060400160405280866001600160a01b031681526020018581525081600081518110611a9857611a98612620565b60209081029190910101526040805160a081019091526001600160a01b03891660c08201528060e0810160405160208183030381529060405281526020018888604051602001611ae9929190612636565b6040516020818303038152906040528152602001828152602001846001600160a01b03168152602001611b7a604051806040016040528062030d408152602001600015158152506040805182516024820152602092830151151560448083019190915282518083039091018152606490910190915290810180516001600160e01b03166397a657c960e01b17905290565b905298975050505050505050565b6000546001600160a01b03163314611bdb5760405162461bcd60e51b815260206004820152601660248201527527b7363c9031b0b63630b1363290313c9037bbb732b960511b60448201526064016103ba565b565b6020808201516001600160401b0381166000908152600890925260409091205460ff16611c285760405163042784cf60e31b81526001600160401b03821660048201526024016103ba565b815160025560608201518051611c4691602091810182019101612652565b600590611c539082612718565b508160800151600081518110611c6b57611c6b612620565b602002602001015160000151600360006101000a8154816001600160a01b0302191690836001600160a01b031602179055508160800151600081518110611cb457611cb4612620565b60200260200101516020015160048190555081602001516001600160401b031682600001517f90ec910a8f80bb04e184a806e2ae6f8786ef2ae898859a3180f953397edc12018460400151806020019051810190611d12919061217a565b8560600151806020019051810190611d2a9190612652565b8660800151600081518110611d4157611d41612620565b6020026020010151600001518760800151600081518110611d6457611d64612620565b602002602001015160200151604051611d8094939291906127d7565b60405180910390a35050565b336001600160a01b03821603611de45760405162461bcd60e51b815260206004820152601760248201527f43616e6e6f74207472616e7366657220746f2073656c6600000000000000000060448201526064016103ba565b600180546001600160a01b0319166001600160a01b0383811691821790925560008054604051929316917fed8889f560326eb138920d842192f0eb3dd22b4f139c87a2c57538e05bae12789190a350565b80356001600160401b0381168114611e4c57600080fd5b919050565b6001600160a01b0381168114610cbb57600080fd5b60008083601f840112611e7857600080fd5b5081356001600160401b03811115611e8f57600080fd5b602083019150836020828501011115611ea757600080fd5b9250929050565b60008060008060008060a08789031215611ec757600080fd5b611ed087611e35565b95506020870135611ee081611e51565b945060408701356001600160401b03811115611efb57600080fd5b611f0789828a01611e66565b9095509350506060870135611f1b81611e51565b80925050608087013590509295509295509295565b600060208284031215611f4257600080fd5b81356001600160e01b031981168114611f5a57600080fd5b9392505050565b8015158114610cbb57600080fd5b60008060408385031215611f8257600080fd5b611f8b83611e35565b91506020830135611f9b81611f61565b809150509250929050565b60005b83811015611fc1578181015183820152602001611fa9565b50506000910152565b60008151808452611fe2816020860160208601611fa6565b601f01601f19169290920160200192915050565b84815260806020820152600061200f6080830186611fca565b6001600160a01b03949094166040830152506060015292915050565b6000806040838503121561203e57600080fd5b823561204981611e51565b91506020830135611f9b81611e51565b60006020828403121561206b57600080fd5b8135611f5a81611e51565b60006020828403121561208857600080fd5b5035919050565b6000602082840312156120a157600080fd5b81356001600160401b038111156120b757600080fd5b820160a08185031215611f5a57600080fd5b6000602082840312156120db57600080fd5b611f5a82611e35565b600080600080600080600060c0888a0312156120ff57600080fd5b61210888611e35565b9650602088013561211881611e51565b955060408801356001600160401b0381111561213357600080fd5b61213f8a828b01611e66565b909650945050606088013561215381611e51565b9250608088013561216381611e51565b8092505060a0880135905092959891949750929550565b60006020828403121561218c57600080fd5b8151611f5a81611e51565b600060406001600160401b03851683526020604081850152845160a060408601526121c560e0860182611fca565b905081860151603f19808784030160608801526121e28383611fca565b6040890151888203830160808a01528051808352908601945060009350908501905b8084101561223657845180516001600160a01b0316835286015186830152938501936001939093019290860190612204565b5060608901516001600160a01b031660a08901526080890151888203830160c08a015295506122658187611fca565b9a9950505050505050505050565b60006020828403121561228557600080fd5b5051919050565b6000826122a957634e487b7160e01b600052601260045260246000fd5b500490565b80820180821115610ae557634e487b7160e01b600052601160045260246000fd5b6000602082840312156122e157600080fd5b8151611f5a81611f61565b6001600160a01b039384168152919092166020820152604081019190915260600190565b81835281816020850137506000828201602090810191909152601f909101601f19169091010190565b600060018060a01b03808a16835260c0602084015261235c60c08401898b612310565b968116604084015260608301959095525091909216608082015260a001529392505050565b600181811c9082168061239557607f821691505b6020821081036123b557634e487b7160e01b600052602260045260246000fd5b50919050565b634e487b7160e01b600052604160045260246000fd5b604080519081016001600160401b03811182821017156123f3576123f36123bb565b60405290565b60405160a081016001600160401b03811182821017156123f3576123f36123bb565b604051601f8201601f191681016001600160401b0381118282101715612443576124436123bb565b604052919050565b60006001600160401b03821115612464576124646123bb565b50601f01601f191660200190565b600082601f83011261248357600080fd5b81356124966124918261244b565b61241b565b8181528460208386010111156124ab57600080fd5b816020850160208301376000918101602001919091529392505050565b600082601f8301126124d957600080fd5b813560206001600160401b038211156124f4576124f46123bb565b612502818360051b0161241b565b82815260069290921b8401810191818101908684111561252157600080fd5b8286015b84811015612569576040818903121561253e5760008081fd5b6125466123d1565b813561255181611e51565b81528185013585820152835291830191604001612525565b509695505050505050565b600060a0823603121561258657600080fd5b61258e6123f9565b8235815261259e60208401611e35565b602082015260408301356001600160401b03808211156125bd57600080fd5b6125c936838701612472565b604084015260608501359150808211156125e257600080fd5b6125ee36838701612472565b6060840152608085013591508082111561260757600080fd5b50612614368286016124c8565b60808301525092915050565b634e487b7160e01b600052603260045260246000fd5b60208152600061264a602083018486612310565b949350505050565b60006020828403121561266457600080fd5b81516001600160401b0381111561267a57600080fd5b8201601f8101841361268b57600080fd5b80516126996124918261244b565b8181528560208385010111156126ae57600080fd5b6126bf826020830160208601611fa6565b95945050505050565b601f821115610e72576000816000526020600020601f850160051c810160208610156126f15750805b601f850160051c820191505b81811015612710578281556001016126fd565b505050505050565b81516001600160401b03811115612731576127316123bb565b6127458161273f8454612381565b846126c8565b602080601f83116001811461277a57600084156127625750858301515b600019600386901b1c1916600185901b178555612710565b600085815260208120601f198616915b828110156127a95788860151825594840194600190910190840161278a565b50858210156127c75787850151600019600388901b60f8161c191681555b5050505050600190811b01905550565b600060018060a01b038087168352608060208401526127f96080840187611fca565b9416604083015250606001529291505056fea26469706673582212207dd93a4656538f972ecb4ce9b10c81ffbfa603d7fe1d60d3cb6e549bed6eae8564736f6c63430008160033",
    "linkReferences": {}
  },
  "methodIdentifiers": {
    "acceptOwnership()": "79ba5097",
    "allowListDestinationChain(uint64,bool)": "0af4ed17",
    "allowListSourceChain(uint64,bool)": "aa1a114a",
    "allowListedDestinationChains(uint64)": "98dfa40b",
    "allowListedSourceChains(uint64)": "aa84600a",
    "ccipReceive((bytes32,uint64,bytes,bytes,(address,uint256)[]))": "85572ffb",
    "getFeePrediction(uint64,address,string,address,address,uint256)": "da95f579",
    "getLastReceivedMessageDetails()": "263596a5",
    "getRouter()": "b0f479a1",
    "owner()": "8da5cb5b",
    "sendTokenPayLink(uint64,address,string,address,uint256)": "8d425982",
    "sendTokenPayNative(uint64,address,string,address,uint256)": "01f16f12",
    "supportsInterface(bytes4)": "01ffc9a7",
    "transferOwnership(address)": "f2fde38b",
    "unwrapAvaxToken(uint256)": "6a4f7cc8",
    "withdraw(address)": "51cff8d9",
    "withdrawToken(address,address)": "3aeac4e1",
    "wrapAvaxToken()": "2fe18faa"
  },
  "id": 29
}