{
  "abi": [
    {
      "inputs": [
        {
          "internalType": "address",
          "name": "_router",
          "type": "address"
        },
        {
          "internalType": "address",
          "name": "_link",
          "type": "address"
        },
        {
          "internalType": "address",
          "name": "_nativeToken",
          "type": "address"
        },
        {
          "internalType": "address",
          "name": "_platform",
          "type": "address"
        }
      ],
      "stateMutability": "nonpayable",
      "type": "constructor"
    },
    {
      "inputs": [
        {
          "internalType": "uint64",
          "name": "destinationChainSelector",
          "type": "uint64"
        }
      ],
      "name": "DestinationChainNotAllowed",
      "type": "error"
    },
    {
      "inputs": [
        {
          "internalType": "address",
          "name": "owner",
          "type": "address"
        },
        {
          "internalType": "address",
          "name": "target",
          "type": "address"
        },
        {
          "internalType": "uint256",
          "name": "value",
          "type": "uint256"
        }
      ],
      "name": "FailedToWithdrawEth",
      "type": "error"
    },
    {
      "inputs": [
        {
          "internalType": "address",
          "name": "router",
          "type": "address"
        }
      ],
      "name": "InvalidRouter",
      "type": "error"
    },
    {
      "inputs": [
        {
          "internalType": "uint256",
          "name": "currentBalance",
          "type": "uint256"
        },
        {
          "internalType": "uint256",
          "name": "calculatedFees",
          "type": "uint256"
        }
      ],
      "name": "NotEnoughBalance",
      "type": "error"
    },
    {
      "inputs": [],
      "name": "NothingToWithdraw",
      "type": "error"
    },
    {
      "inputs": [
        {
          "internalType": "address",
          "name": "sender",
          "type": "address"
        }
      ],
      "name": "SenderNotAllowed",
      "type": "error"
    },
    {
      "inputs": [
        {
          "internalType": "uint64",
          "name": "sourceChainSelector",
          "type": "uint64"
        }
      ],
      "name": "SourceChainNotAllowed",
      "type": "error"
    },
    {
      "anonymous": false,
      "inputs": [
        {
          "indexed": true,
          "internalType": "bytes32",
          "name": "messageId",
          "type": "bytes32"
        },
        {
          "indexed": true,
          "internalType": "uint64",
          "name": "sourceChainSelector",
          "type": "uint64"
        },
        {
          "indexed": false,
          "internalType": "address",
          "name": "senser",
          "type": "address"
        },
        {
          "indexed": false,
          "internalType": "string",
          "name": "text",
          "type": "string"
        },
        {
          "indexed": false,
          "internalType": "address",
          "name": "token",
          "type": "address"
        },
        {
          "indexed": false,
          "internalType": "uint256",
          "name": "tokenAmount",
          "type": "uint256"
        }
      ],
      "name": "MessageReceived",
      "type": "event"
    },
    {
      "anonymous": false,
      "inputs": [
        {
          "indexed": true,
          "internalType": "bytes32",
          "name": "messageId",
          "type": "bytes32"
        },
        {
          "indexed": true,
          "internalType": "uint64",
          "name": "destinationChainSelector",
          "type": "uint64"
        },
        {
          "indexed": false,
          "internalType": "address",
          "name": "receiver",
          "type": "address"
        },
        {
          "indexed": false,
          "internalType": "string",
          "name": "text",
          "type": "string"
        },
        {
          "indexed": false,
          "internalType": "address",
          "name": "token",
          "type": "address"
        },
        {
          "indexed": false,
          "internalType": "uint256",
          "name": "tokenAmount",
          "type": "uint256"
        },
        {
          "indexed": false,
          "internalType": "address",
          "name": "feeToken",
          "type": "address"
        },
        {
          "indexed": false,
          "internalType": "uint256",
          "name": "fees",
          "type": "uint256"
        }
      ],
      "name": "MessageSent",
      "type": "event"
    },
    {
      "anonymous": false,
      "inputs": [
        {
          "indexed": true,
          "internalType": "address",
          "name": "from",
          "type": "address"
        },
        {
          "indexed": true,
          "internalType": "address",
          "name": "to",
          "type": "address"
        }
      ],
      "name": "OwnershipTransferRequested",
      "type": "event"
    },
    {
      "anonymous": false,
      "inputs": [
        {
          "indexed": true,
          "internalType": "address",
          "name": "from",
          "type": "address"
        },
        {
          "indexed": true,
          "internalType": "address",
          "name": "to",
          "type": "address"
        }
      ],
      "name": "OwnershipTransferred",
      "type": "event"
    },
    {
      "inputs": [],
      "name": "acceptOwnership",
      "outputs": [],
      "stateMutability": "nonpayable",
      "type": "function"
    },
    {
      "inputs": [
        {
          "internalType": "uint64",
          "name": "_destinationChainSelector",
          "type": "uint64"
        },
        {
          "internalType": "bool",
          "name": "allowed",
          "type": "bool"
        }
      ],
      "name": "allowListDestinationChain",
      "outputs": [],
      "stateMutability": "nonpayable",
      "type": "function"
    },
    {
      "inputs": [
        {
          "internalType": "uint64",
          "name": "_sourceChainSelector",
          "type": "uint64"
        },
        {
          "internalType": "bool",
          "name": "allowed",
          "type": "bool"
        }
      ],
      "name": "allowListSourceChain",
      "outputs": [],
      "stateMutability": "nonpayable",
      "type": "function"
    },
    {
      "inputs": [
        {
          "internalType": "uint64",
          "name": "",
          "type": "uint64"
        }
      ],
      "name": "allowListedDestinationChains",
      "outputs": [
        {
          "internalType": "bool",
          "name": "",
          "type": "bool"
        }
      ],
      "stateMutability": "view",
      "type": "function"
    },
    {
      "inputs": [
        {
          "internalType": "uint64",
          "name": "",
          "type": "uint64"
        }
      ],
      "name": "allowListedSourceChains",
      "outputs": [
        {
          "internalType": "bool",
          "name": "",
          "type": "bool"
        }
      ],
      "stateMutability": "view",
      "type": "function"
    },
    {
      "inputs": [
        {
          "components": [
            {
              "internalType": "bytes32",
              "name": "messageId",
              "type": "bytes32"
            },
            {
              "internalType": "uint64",
              "name": "sourceChainSelector",
              "type": "uint64"
            },
            {
              "internalType": "bytes",
              "name": "sender",
              "type": "bytes"
            },
            {
              "internalType": "bytes",
              "name": "data",
              "type": "bytes"
            },
            {
              "components": [
                {
                  "internalType": "address",
                  "name": "token",
                  "type": "address"
                },
                {
                  "internalType": "uint256",
                  "name": "amount",
                  "type": "uint256"
                }
              ],
              "internalType": "struct Client.EVMTokenAmount[]",
              "name": "destTokenAmounts",
              "type": "tuple[]"
            }
          ],
          "internalType": "struct Client.Any2EVMMessage",
          "name": "message",
          "type": "tuple"
        }
      ],
      "name": "ccipReceive",
      "outputs": [],
      "stateMutability": "nonpayable",
      "type": "function"
    },
    {
      "inputs": [
        {
          "internalType": "uint64",
          "name": "_destinationChainSelector",
          "type": "uint64"
        },
        {
          "internalType": "address",
          "name": "_receiver",
          "type": "address"
        },
        {
          "internalType": "string",
          "name": "_text",
          "type": "string"
        },
        {
          "internalType": "address",
          "name": "_token_fees",
          "type": "address"
        },
        {
          "internalType": "address",
          "name": "_token",
          "type": "address"
        },
        {
          "internalType": "uint256",
          "name": "_amount",
          "type": "uint256"
        }
      ],
      "name": "getFeePrediction",
      "outputs": [
        {
          "internalType": "uint256",
          "name": "",
          "type": "uint256"
        }
      ],
      "stateMutability": "view",
      "type": "function"
    },
    {
      "inputs": [],
      "name": "getLastReceivedMessageDetails",
      "outputs": [
        {
          "internalType": "bytes32",
          "name": "messageId",
          "type": "bytes32"
        },
        {
          "internalType": "string",
          "name": "text",
          "type": "string"
        },
        {
          "internalType": "address",
          "name": "tokenAddress",
          "type": "address"
        },
        {
          "internalType": "uint256",
          "name": "tokenAmount",
          "type": "uint256"
        }
      ],
      "stateMutability": "view",
      "type": "function"
    },
    {
      "inputs": [],
      "name": "getRouter",
      "outputs": [
        {
          "internalType": "address",
          "name": "",
          "type": "address"
        }
      ],
      "stateMutability": "view",
      "type": "function"
    },
    {
      "inputs": [],
      "name": "owner",
      "outputs": [
        {
          "internalType": "address",
          "name": "",
          "type": "address"
        }
      ],
      "stateMutability": "view",
      "type": "function"
    },
    {
      "inputs": [
        {
          "internalType": "uint64",
          "name": "_destinationChainSelector",
          "type": "uint64"
        },
        {
          "internalType": "address",
          "name": "_receiver",
          "type": "address"
        },
        {
          "internalType": "string",
          "name": "_text",
          "type": "string"
        },
        {
          "internalType": "address",
          "name": "_token",
          "type": "address"
        },
        {
          "internalType": "uint256",
          "name": "_amount",
          "type": "uint256"
        }
      ],
      "name": "sendTokenPayLink",
      "outputs": [
        {
          "internalType": "bytes32",
          "name": "messageId",
          "type": "bytes32"
        }
      ],
      "stateMutability": "nonpayable",
      "type": "function"
    },
    {
      "inputs": [
        {
          "internalType": "uint64",
          "name": "_destinationChainSelector",
          "type": "uint64"
        },
        {
          "internalType": "address",
          "name": "_receiver",
          "type": "address"
        },
        {
          "internalType": "string",
          "name": "_text",
          "type": "string"
        },
        {
          "internalType": "address",
          "name": "_token",
          "type": "address"
        },
        {
          "internalType": "uint256",
          "name": "_amount",
          "type": "uint256"
        }
      ],
      "name": "sendTokenPayNative",
      "outputs": [
        {
          "internalType": "bytes32",
          "name": "messageId",
          "type": "bytes32"
        }
      ],
      "stateMutability": "nonpayable",
      "type": "function"
    },
    {
      "inputs": [
        {
          "internalType": "bytes4",
          "name": "interfaceId",
          "type": "bytes4"
        }
      ],
      "name": "supportsInterface",
      "outputs": [
        {
          "internalType": "bool",
          "name": "",
          "type": "bool"
        }
      ],
      "stateMutability": "pure",
      "type": "function"
    },
    {
      "inputs": [
        {
          "internalType": "address",
          "name": "to",
          "type": "address"
        }
      ],
      "name": "transferOwnership",
      "outputs": [],
      "stateMutability": "nonpayable",
      "type": "function"
    },
    {
      "inputs": [
        {
          "internalType": "address",
          "name": "_beneficiary",
          "type": "address"
        }
      ],
      "name": "withdraw",
      "outputs": [],
      "stateMutability": "nonpayable",
      "type": "function"
    },
    {
      "inputs": [
        {
          "internalType": "address",
          "name": "_beneficiary",
          "type": "address"
        },
        {
          "internalType": "address",
          "name": "_token",
          "type": "address"
        }
      ],
      "name": "withdrawToken",
      "outputs": [],
      "stateMutability": "nonpayable",
      "type": "function"
    },
    {
      "stateMutability": "payable",
      "type": "receive"
    }
  ],
  "bytecode": {
    "object": "0x60a06040523480156200001157600080fd5b506040516200280e3803806200280e833981016040819052620000349162000209565b33806000866001600160a01b03811662000069576040516335fdcccd60e21b8152600060048201526024015b60405180910390fd5b6001600160a01b039081166080528216620000c75760405162461bcd60e51b815260206004820152601860248201527f43616e6e6f7420736574206f776e657220746f207a65726f0000000000000000604482015260640162000060565b600080546001600160a01b0319166001600160a01b0384811691909117909155811615620000fa57620000fa8162000141565b5050600980546001600160a01b039586166001600160a01b031991821617909155600a80549486169482169490941790935550600680549190931691161790555062000266565b336001600160a01b038216036200019b5760405162461bcd60e51b815260206004820152601760248201527f43616e6e6f74207472616e7366657220746f2073656c66000000000000000000604482015260640162000060565b600180546001600160a01b0319166001600160a01b0383811691821790925560008054604051929316917fed8889f560326eb138920d842192f0eb3dd22b4f139c87a2c57538e05bae12789190a350565b80516001600160a01b03811681146200020457600080fd5b919050565b600080600080608085870312156200022057600080fd5b6200022b85620001ec565b93506200023b60208601620001ec565b92506200024b60408601620001ec565b91506200025b60608601620001ec565b905092959194509250565b60805161258562000289600039600081816102e30152610e1a01526125856000f3fe6080604052600436106100f75760003560e01c80638d4259821161008a578063aa84600a11610059578063aa84600a146102a4578063b0f479a1146102d4578063da95f57914610307578063f2fde38b1461032757600080fd5b80638d425982146102225780638da5cb5b1461024257806398dfa40b14610274578063aa1a114a1461016657600080fd5b80633aeac4e1116100c65780633aeac4e1146101ad57806351cff8d9146101cd57806379ba5097146101ed57806385572ffb1461020257600080fd5b806301f16f121461010357806301ffc9a7146101365780630af4ed1714610166578063263596a51461018857600080fd5b366100fe57005b600080fd5b34801561010f57600080fd5b5061012361011e366004611bec565b610347565b6040519081526020015b60405180910390f35b34801561014257600080fd5b50610156610151366004611c6e565b610a83565b604051901515815260200161012d565b34801561017257600080fd5b50610186610181366004611cad565b610aba565b005b34801561019457600080fd5b5061019d610aed565b60405161012d9493929190611d34565b3480156101b957600080fd5b506101866101c8366004611d69565b610bac565b3480156101d957600080fd5b506101866101e8366004611d97565b610cbb565b3480156101f957600080fd5b50610186610d65565b34801561020e57600080fd5b5061018661021d366004611db4565b610e0f565b34801561022e57600080fd5b5061012361023d366004611bec565b610e6e565b34801561024e57600080fd5b506000546001600160a01b03165b6040516001600160a01b03909116815260200161012d565b34801561028057600080fd5b5061015661028f366004611dee565b60076020526000908152604090205460ff1681565b3480156102b057600080fd5b506101566102bf366004611dee565b60086020526000908152604090205460ff1681565b3480156102e057600080fd5b507f000000000000000000000000000000000000000000000000000000000000000061025c565b34801561031357600080fd5b50610123610322366004611e09565b6115cd565b34801561033357600080fd5b50610186610342366004611d97565b611719565b6001600160401b038616600090815260076020526040812054879060ff166103925760405163206abad760e01b81526001600160401b03821660048201526024015b60405180910390fd5b60006103a38888888888600061172a565b90506000306001600160a01b031663b0f479a16040518163ffffffff1660e01b8152600401602060405180830381865afa1580156103e5573d6000803e3d6000fd5b505050506040513d601f19601f820116820180604052508101906104099190611e9f565b90506000816001600160a01b03166320487ded8c856040518363ffffffff1660e01b815260040161043b929190611ebc565b602060405180830381865afa158015610458573d6000803e3d6000fd5b505050506040513d601f19601f8201168201806040525081019061047c9190611f98565b9050478111156104a857604051634787a10360e11b815247600482015260248101829052604401610389565b6040516370a0823160e01b81523060048201526001600160a01b038816906370a0823190602401602060405180830381865afa1580156104ec573d6000803e3d6000fd5b505050506040513d601f19601f820116820180604052508101906105109190611f98565b8611156105a4576040516370a0823160e01b81523060048201526001600160a01b038816906370a08231906024015b602060405180830381865afa15801561055c573d6000803e3d6000fd5b505050506040513d601f19601f820116820180604052508101906105809190611f98565b604051634787a10360e11b8152600481019190915260248101879052604401610389565b600a546040516370a0823160e01b81523360048201526001600160a01b03909116906370a0823190602401602060405180830381865afa1580156105ec573d6000803e3d6000fd5b505050506040513d601f19601f820116820180604052508101906106109190611f98565b61061b600a83611fc7565b6106259083611fe9565b11156106cf57600a546040516370a0823160e01b81523360048201526001600160a01b03909116906370a08231906024015b602060405180830381865afa158015610674573d6000803e3d6000fd5b505050506040513d601f19601f820116820180604052508101906106989190611f98565b6106a3600a83611fc7565b6106ad9083611fe9565b604051634787a10360e11b815260048101929092526024820152604401610389565b6040516370a0823160e01b81523360048201526001600160a01b038816906370a0823190602401602060405180830381865afa158015610713573d6000803e3d6000fd5b505050506040513d601f19601f820116820180604052508101906107379190611f98565b86111561076a576040516370a0823160e01b81523360048201526001600160a01b038816906370a082319060240161053f565b60405163095ea7b360e01b81526001600160a01b0383811660048301526024820188905288169063095ea7b3906044016020604051808303816000875af11580156107b9573d6000803e3d6000fd5b505050506040513d601f19601f820116820180604052508101906107dd9190611ffc565b50600a80546006546001600160a01b03918216926323b872dd92339216906108059086611fc7565b6040518463ffffffff1660e01b815260040161082393929190612019565b6020604051808303816000875af1158015610842573d6000803e3d6000fd5b505050506040513d601f19601f820116820180604052508101906108669190611ffc565b50600a546040516323b872dd60e01b81526001600160a01b03909116906323b872dd9061089b90339030908690600401612019565b6020604051808303816000875af11580156108ba573d6000803e3d6000fd5b505050506040513d601f19601f820116820180604052508101906108de9190611ffc565b50600a54604051632e1a7d4d60e01b8152600481018390526001600160a01b0390911690632e1a7d4d90602401600060405180830381600087803b15801561092557600080fd5b505af1158015610939573d6000803e3d6000fd5b50506040516323b872dd60e01b81526001600160a01b038a1692506323b872dd915061096d90339030908b90600401612019565b6020604051808303816000875af115801561098c573d6000803e3d6000fd5b505050506040513d601f19601f820116820180604052508101906109b09190611ffc565b506040516396f4e9f960e01b81526001600160a01b038316906396f4e9f99083906109e1908f908890600401611ebc565b60206040518083038185885af11580156109ff573d6000803e3d6000fd5b50505050506040513d601f19601f82011682018060405250810190610a249190611f98565b94508a6001600160401b0316857f437cb3c5ba4364504dda6ba3c906ffb0897c7beeb1675f3aaf22a1b9a99b39948c8c8c8c8c600089604051610a6d9796959493929190612066565b60405180910390a3505050509695505050505050565b60006001600160e01b031982166385572ffb60e01b1480610ab457506001600160e01b031982166301ffc9a760e01b145b92915050565b610ac26118c6565b6001600160401b03919091166000908152600760205260409020805460ff1916911515919091179055565b600060606000806002546005600360009054906101000a90046001600160a01b0316600454828054610b1e906120ae565b80601f0160208091040260200160405190810160405280929190818152602001828054610b4a906120ae565b8015610b975780601f10610b6c57610100808354040283529160200191610b97565b820191906000526020600020905b815481529060010190602001808311610b7a57829003601f168201915b50505050509250935093509350935090919293565b610bb46118c6565b6040516370a0823160e01b81523060048201526000906001600160a01b038316906370a0823190602401602060405180830381865afa158015610bfb573d6000803e3d6000fd5b505050506040513d601f19601f82011682018060405250810190610c1f9190611f98565b905080600003610c4257604051630686827b60e51b815260040160405180910390fd5b60405163a9059cbb60e01b81526001600160a01b0384811660048301526024820183905283169063a9059cbb906044016020604051808303816000875af1158015610c91573d6000803e3d6000fd5b505050506040513d601f19601f82011682018060405250810190610cb59190611ffc565b50505050565b610cc36118c6565b476000819003610ce657604051630686827b60e51b815260040160405180910390fd5b6000826001600160a01b03168260405160006040518083038185875af1925050503d8060008114610d33576040519150601f19603f3d011682016040523d82523d6000602084013e610d38565b606091505b5050905080610d6057338383604051639d11f56360e01b815260040161038993929190612019565b505050565b6001546001600160a01b03163314610db85760405162461bcd60e51b815260206004820152601660248201527526bab9ba10313290383937b837b9b2b21037bbb732b960511b6044820152606401610389565b60008054336001600160a01b0319808316821784556001805490911690556040516001600160a01b0390921692909183917f8be0079c531659141344cd1fd0a4f28419497f9722a3daafe3b4186f6b6457e091a350565b336001600160a01b037f00000000000000000000000000000000000000000000000000000000000000001614610e5a576040516335fdcccd60e21b8152336004820152602401610389565b610e6b610e66826122a1565b61191b565b50565b6001600160401b038616600090815260076020526040812054879060ff16610eb45760405163206abad760e01b81526001600160401b0382166004820152602401610389565b6000610ed98888888888600960009054906101000a90046001600160a01b031661172a565b90506000306001600160a01b031663b0f479a16040518163ffffffff1660e01b8152600401602060405180830381865afa158015610f1b573d6000803e3d6000fd5b505050506040513d601f19601f82011682018060405250810190610f3f9190611e9f565b90506000816001600160a01b03166320487ded8c856040518363ffffffff1660e01b8152600401610f71929190611ebc565b602060405180830381865afa158015610f8e573d6000803e3d6000fd5b505050506040513d601f19601f82011682018060405250810190610fb29190611f98565b6009546040516370a0823160e01b81523060048201529192506001600160a01b0316906370a0823190602401602060405180830381865afa158015610ffb573d6000803e3d6000fd5b505050506040513d601f19601f8201168201806040525081019061101f9190611f98565b8111156110b6576009546040516370a0823160e01b81523060048201526001600160a01b03909116906370a0823190602401602060405180830381865afa15801561106e573d6000803e3d6000fd5b505050506040513d601f19601f820116820180604052508101906110929190611f98565b604051634787a10360e11b8152600481019190915260248101829052604401610389565b6040516370a0823160e01b81523060048201526001600160a01b038816906370a0823190602401602060405180830381865afa1580156110fa573d6000803e3d6000fd5b505050506040513d601f19601f8201168201806040525081019061111e9190611f98565b861115611151576040516370a0823160e01b81523060048201526001600160a01b038816906370a082319060240161053f565b6009546040516370a0823160e01b81523360048201526001600160a01b03909116906370a0823190602401602060405180830381865afa158015611199573d6000803e3d6000fd5b505050506040513d601f19601f820116820180604052508101906111bd9190611f98565b6111c8600a83611fc7565b6111d29083611fe9565b1115611208576009546040516370a0823160e01b81523360048201526001600160a01b03909116906370a0823190602401610657565b6040516370a0823160e01b81523360048201526001600160a01b038816906370a0823190602401602060405180830381865afa15801561124c573d6000803e3d6000fd5b505050506040513d601f19601f820116820180604052508101906112709190611f98565b8611156112a3576040516370a0823160e01b81523360048201526001600160a01b038816906370a082319060240161053f565b60095460405163095ea7b360e01b81526001600160a01b038481166004830152602482018490529091169063095ea7b3906044016020604051808303816000875af11580156112f6573d6000803e3d6000fd5b505050506040513d601f19601f8201168201806040525081019061131a9190611ffc565b5060405163095ea7b360e01b81526001600160a01b0383811660048301526024820188905288169063095ea7b3906044016020604051808303816000875af115801561136a573d6000803e3d6000fd5b505050506040513d601f19601f8201168201806040525081019061138e9190611ffc565b506009546006546001600160a01b03918216916323b872dd913391166113b5600a86611fc7565b6040518463ffffffff1660e01b81526004016113d393929190612019565b6020604051808303816000875af11580156113f2573d6000803e3d6000fd5b505050506040513d601f19601f820116820180604052508101906114169190611ffc565b506009546040516323b872dd60e01b81526001600160a01b03909116906323b872dd9061144b90339030908690600401612019565b6020604051808303816000875af115801561146a573d6000803e3d6000fd5b505050506040513d601f19601f8201168201806040525081019061148e9190611ffc565b506040516323b872dd60e01b81526001600160a01b038816906323b872dd906114bf90339030908b90600401612019565b6020604051808303816000875af11580156114de573d6000803e3d6000fd5b505050506040513d601f19601f820116820180604052508101906115029190611ffc565b506040516396f4e9f960e01b81526001600160a01b038316906396f4e9f990611531908e908790600401611ebc565b6020604051808303816000875af1158015611550573d6000803e3d6000fd5b505050506040513d601f19601f820116820180604052508101906115749190611f98565b6009546040519196506001600160401b038d169187917f437cb3c5ba4364504dda6ba3c906ffb0897c7beeb1675f3aaf22a1b9a99b399491610a6d918f918f918f918f918f916001600160a01b03909116908b90612066565b6001600160401b038716600090815260076020526040812054889060ff166116135760405163206abad760e01b81526001600160401b0382166004820152602401610389565b600061162389898988888b61172a565b90506000306001600160a01b031663b0f479a16040518163ffffffff1660e01b8152600401602060405180830381865afa158015611665573d6000803e3d6000fd5b505050506040513d601f19601f820116820180604052508101906116899190611e9f565b90506000816001600160a01b03166320487ded8d856040518363ffffffff1660e01b81526004016116bb929190611ebc565b602060405180830381865afa1580156116d8573d6000803e3d6000fd5b505050506040513d601f19601f820116820180604052508101906116fc9190611f98565b905061170981600261234d565b9c9b505050505050505050505050565b6117216118c6565b610e6b81611aca565b6117656040518060a0016040528060608152602001606081526020016060815260200160006001600160a01b03168152602001606081525090565b604080516001808252818301909252600091816020015b604080518082019091526000808252602082015281526020019060019003908161177c5790505090506040518060400160405280866001600160a01b0316815260200185815250816000815181106117d6576117d6612364565b60209081029190910101526040805160a081019091526001600160a01b03891660c08201528060e081016040516020818303038152906040528152602001888860405160200161182792919061237a565b6040516020818303038152906040528152602001828152602001846001600160a01b031681526020016118b8604051806040016040528062030d408152602001600015158152506040805182516024820152602092830151151560448083019190915282518083039091018152606490910190915290810180516001600160e01b03166397a657c960e01b17905290565b905298975050505050505050565b6000546001600160a01b031633146119195760405162461bcd60e51b815260206004820152601660248201527527b7363c9031b0b63630b1363290313c9037bbb732b960511b6044820152606401610389565b565b6020808201516001600160401b0381166000908152600890925260409091205460ff166119665760405163042784cf60e31b81526001600160401b0382166004820152602401610389565b81516002556060820151805161198491602091810182019101612396565b600590611991908261245c565b5081608001516000815181106119a9576119a9612364565b602002602001015160000151600360006101000a8154816001600160a01b0302191690836001600160a01b0316021790555081608001516000815181106119f2576119f2612364565b60200260200101516020015160048190555081602001516001600160401b031682600001517f90ec910a8f80bb04e184a806e2ae6f8786ef2ae898859a3180f953397edc12018460400151806020019051810190611a509190611e9f565b8560600151806020019051810190611a689190612396565b8660800151600081518110611a7f57611a7f612364565b6020026020010151600001518760800151600081518110611aa257611aa2612364565b602002602001015160200151604051611abe949392919061251b565b60405180910390a35050565b336001600160a01b03821603611b225760405162461bcd60e51b815260206004820152601760248201527f43616e6e6f74207472616e7366657220746f2073656c660000000000000000006044820152606401610389565b600180546001600160a01b0319166001600160a01b0383811691821790925560008054604051929316917fed8889f560326eb138920d842192f0eb3dd22b4f139c87a2c57538e05bae12789190a350565b80356001600160401b0381168114611b8a57600080fd5b919050565b6001600160a01b0381168114610e6b57600080fd5b60008083601f840112611bb657600080fd5b5081356001600160401b03811115611bcd57600080fd5b602083019150836020828501011115611be557600080fd5b9250929050565b60008060008060008060a08789031215611c0557600080fd5b611c0e87611b73565b95506020870135611c1e81611b8f565b945060408701356001600160401b03811115611c3957600080fd5b611c4589828a01611ba4565b9095509350506060870135611c5981611b8f565b80925050608087013590509295509295509295565b600060208284031215611c8057600080fd5b81356001600160e01b031981168114611c9857600080fd5b9392505050565b8015158114610e6b57600080fd5b60008060408385031215611cc057600080fd5b611cc983611b73565b91506020830135611cd981611c9f565b809150509250929050565b60005b83811015611cff578181015183820152602001611ce7565b50506000910152565b60008151808452611d20816020860160208601611ce4565b601f01601f19169290920160200192915050565b848152608060208201526000611d4d6080830186611d08565b6001600160a01b03949094166040830152506060015292915050565b60008060408385031215611d7c57600080fd5b8235611d8781611b8f565b91506020830135611cd981611b8f565b600060208284031215611da957600080fd5b8135611c9881611b8f565b600060208284031215611dc657600080fd5b81356001600160401b03811115611ddc57600080fd5b820160a08185031215611c9857600080fd5b600060208284031215611e0057600080fd5b611c9882611b73565b600080600080600080600060c0888a031215611e2457600080fd5b611e2d88611b73565b96506020880135611e3d81611b8f565b955060408801356001600160401b03811115611e5857600080fd5b611e648a828b01611ba4565b9096509450506060880135611e7881611b8f565b92506080880135611e8881611b8f565b8092505060a0880135905092959891949750929550565b600060208284031215611eb157600080fd5b8151611c9881611b8f565b600060406001600160401b03851683526020604081850152845160a06040860152611eea60e0860182611d08565b905081860151603f1980878403016060880152611f078383611d08565b6040890151888203830160808a01528051808352908601945060009350908501905b80841015611f5b57845180516001600160a01b0316835286015186830152938501936001939093019290860190611f29565b5060608901516001600160a01b031660a08901526080890151888203830160c08a01529550611f8a8187611d08565b9a9950505050505050505050565b600060208284031215611faa57600080fd5b5051919050565b634e487b7160e01b600052601160045260246000fd5b600082611fe457634e487b7160e01b600052601260045260246000fd5b500490565b80820180821115610ab457610ab4611fb1565b60006020828403121561200e57600080fd5b8151611c9881611c9f565b6001600160a01b039384168152919092166020820152604081019190915260600190565b81835281816020850137506000828201602090810191909152601f909101601f19169091010190565b600060018060a01b03808a16835260c0602084015261208960c08401898b61203d565b968116604084015260608301959095525091909216608082015260a001529392505050565b600181811c908216806120c257607f821691505b6020821081036120e257634e487b7160e01b600052602260045260246000fd5b50919050565b634e487b7160e01b600052604160045260246000fd5b604080519081016001600160401b0381118282101715612120576121206120e8565b60405290565b60405160a081016001600160401b0381118282101715612120576121206120e8565b604051601f8201601f191681016001600160401b0381118282101715612170576121706120e8565b604052919050565b60006001600160401b03821115612191576121916120e8565b50601f01601f191660200190565b600082601f8301126121b057600080fd5b81356121c36121be82612178565b612148565b8181528460208386010111156121d857600080fd5b816020850160208301376000918101602001919091529392505050565b600082601f83011261220657600080fd5b813560206001600160401b03821115612221576122216120e8565b61222f818360051b01612148565b82815260069290921b8401810191818101908684111561224e57600080fd5b8286015b84811015612296576040818903121561226b5760008081fd5b6122736120fe565b813561227e81611b8f565b81528185013585820152835291830191604001612252565b509695505050505050565b600060a082360312156122b357600080fd5b6122bb612126565b823581526122cb60208401611b73565b602082015260408301356001600160401b03808211156122ea57600080fd5b6122f63683870161219f565b6040840152606085013591508082111561230f57600080fd5b61231b3683870161219f565b6060840152608085013591508082111561233457600080fd5b50612341368286016121f5565b60808301525092915050565b8082028115828204841417610ab457610ab4611fb1565b634e487b7160e01b600052603260045260246000fd5b60208152600061238e60208301848661203d565b949350505050565b6000602082840312156123a857600080fd5b81516001600160401b038111156123be57600080fd5b8201601f810184136123cf57600080fd5b80516123dd6121be82612178565b8181528560208385010111156123f257600080fd5b612403826020830160208601611ce4565b95945050505050565b601f821115610d60576000816000526020600020601f850160051c810160208610156124355750805b601f850160051c820191505b8181101561245457828155600101612441565b505050505050565b81516001600160401b03811115612475576124756120e8565b6124898161248384546120ae565b8461240c565b602080601f8311600181146124be57600084156124a65750858301515b600019600386901b1c1916600185901b178555612454565b600085815260208120601f198616915b828110156124ed578886015182559484019460019091019084016124ce565b508582101561250b5787850151600019600388901b60f8161c191681555b5050505050600190811b01905550565b600060018060a01b0380871683526080602084015261253d6080840187611d08565b9416604083015250606001529291505056fea2646970667358221220435793b8e4028f4d747d695ca20706bdcf6c063673a66fcd129e2f1f3fb8c7c464736f6c63430008160033",
    "linkReferences": {}
  },
  "methodIdentifiers": {
    "acceptOwnership()": "79ba5097",
    "allowListDestinationChain(uint64,bool)": "0af4ed17",
    "allowListSourceChain(uint64,bool)": "aa1a114a",
    "allowListedDestinationChains(uint64)": "98dfa40b",
    "allowListedSourceChains(uint64)": "aa84600a",
    "ccipReceive((bytes32,uint64,bytes,bytes,(address,uint256)[]))": "85572ffb",
    "getFeePrediction(uint64,address,string,address,address,uint256)": "da95f579",
    "getLastReceivedMessageDetails()": "263596a5",
    "getRouter()": "b0f479a1",
    "owner()": "8da5cb5b",
    "sendTokenPayLink(uint64,address,string,address,uint256)": "8d425982",
    "sendTokenPayNative(uint64,address,string,address,uint256)": "01f16f12",
    "supportsInterface(bytes4)": "01ffc9a7",
    "transferOwnership(address)": "f2fde38b",
    "withdraw(address)": "51cff8d9",
    "withdrawToken(address,address)": "3aeac4e1"
  },
  "id": 29
}