{
  "abi": [
    {
      "inputs": [
        {
          "internalType": "address",
          "name": "link",
          "type": "address"
        },
        {
          "internalType": "address",
          "name": "aave",
          "type": "address"
        },
        {
          "internalType": "address",
          "name": "btc",
          "type": "address"
        },
        {
          "internalType": "address",
          "name": "eth",
          "type": "address"
        },
        {
          "internalType": "address",
          "name": "matic",
          "type": "address"
        },
        {
          "internalType": "address",
          "name": "ape",
          "type": "address"
        }
      ],
      "stateMutability": "nonpayable",
      "type": "constructor"
    },
    {
      "inputs": [],
      "name": "getPriceList",
      "outputs": [
        {
          "components": [
            {
              "internalType": "int256",
              "name": "link",
              "type": "int256"
            },
            {
              "internalType": "int256",
              "name": "aave",
              "type": "int256"
            },
            {
              "internalType": "int256",
              "name": "btc",
              "type": "int256"
            },
            {
              "internalType": "int256",
              "name": "eth",
              "type": "int256"
            },
            {
              "internalType": "int256",
              "name": "matic",
              "type": "int256"
            },
            {
              "internalType": "int256",
              "name": "ape",
              "type": "int256"
            }
          ],
          "internalType": "struct FeedTokensPrice.PriceList",
          "name": "",
          "type": "tuple"
        }
      ],
      "stateMutability": "view",
      "type": "function"
    }
  ],
  "bytecode": {
    "object": "0x608060405234801561001057600080fd5b5060405161056c38038061056c83398101604081905261002f91610120565b6040805160c0810182526001600160a01b0380891682528781166020830152868116928201929092528482166060820152838216608082015290821660a082015261007e90600090600661008a565b50505050505050610194565b8280548282559060005260206000209081019282156100df579160200282015b828111156100df57825182546001600160a01b0319166001600160a01b039091161782556020909201916001909101906100aa565b506100eb9291506100ef565b5090565b5b808211156100eb57600081556001016100f0565b80516001600160a01b038116811461011b57600080fd5b919050565b60008060008060008060c0878903121561013957600080fd5b61014287610104565b955061015060208801610104565b945061015e60408801610104565b935061016c60608801610104565b925061017a60808801610104565b915061018860a08801610104565b90509295509295509295565b6103c9806101a36000396000f3fe608060405234801561001057600080fd5b506004361061002b5760003560e01c8063b702914414610030575b600080fd5b61003861008d565b6040516100849190600060c082019050825182526020830151602083015260408301516040830152606083015160608301526080830151608083015260a083015160a083015292915050565b60405180910390f35b6100c66040518060c001604052806000815260200160008152602001600081526020016000815260200160008152602001600081525090565b6000805467ffffffffffffffff8111156100e2576100e26102f8565b60405190808252806020026020018201604052801561010b578160200160208202803683370190505b50905060005b6000548110156101df57600061014b600083815481106101335761013361030e565b6000918252602090912001546001600160a01b031690565b90506000816001600160a01b031663feaf968c6040518163ffffffff1660e01b815260040160a060405180830381865afa15801561018d573d6000803e3d6000fd5b505050506040513d601f19601f820116820180604052508101906101b19190610343565b505050915050808484815181106101ca576101ca61030e565b60209081029190910101525050600101610111565b506101e9816101ef565b91505090565b6102286040518060c001604052806000815260200160008152602001600081526020016000815260200160008152602001600081525090565b6040518060c00160405280836000815181106102465761024661030e565b60200260200101518152602001836001815181106102665761026661030e565b60200260200101518152602001836002815181106102865761028661030e565b60200260200101518152602001836003815181106102a6576102a661030e565b60200260200101518152602001836004815181106102c6576102c661030e565b60200260200101518152602001836005815181106102e6576102e661030e565b60200260200101518152509050919050565b634e487b7160e01b600052604160045260246000fd5b634e487b7160e01b600052603260045260246000fd5b805169ffffffffffffffffffff8116811461033e57600080fd5b919050565b600080600080600060a0868803121561035b57600080fd5b61036486610324565b945060208601519350604086015192506060860151915061038760808701610324565b9050929550929590935056fea2646970667358221220f86523bd3a1c6a45d0f2c7eaf80067c0317e4d48f1c743f4146e7171e934597664736f6c63430008160033",
    "linkReferences": {}
  },
  "methodIdentifiers": {
    "getPriceList()": "b7029144"
  },
  "id": 19
}