{
  "abi": [
    {
      "inputs": [
        {
          "internalType": "address[]",
          "name": "tokens",
          "type": "address[]"
        }
      ],
      "stateMutability": "nonpayable",
      "type": "constructor"
    },
    {
      "inputs": [
        {
          "internalType": "address",
          "name": "token",
          "type": "address"
        }
      ],
      "name": "addContractPrice",
      "outputs": [],
      "stateMutability": "nonpayable",
      "type": "function"
    },
    {
      "inputs": [],
      "name": "getPriceList",
      "outputs": [
        {
          "internalType": "int256[]",
          "name": "",
          "type": "int256[]"
        }
      ],
      "stateMutability": "view",
      "type": "function"
    },
    {
      "inputs": [
        {
          "internalType": "address",
          "name": "token",
          "type": "address"
        }
      ],
      "name": "removeContractPrice",
      "outputs": [],
      "stateMutability": "nonpayable",
      "type": "function"
    }
  ],
  "bytecode": {
    "object": "0x608060405234801561001057600080fd5b5060405161073538038061073583398101604081905261002f91610107565b805161004290600090602084019061005b565b5050600180546001600160a01b031916331790556101cb565b8280548282559060005260206000209081019282156100b0579160200282015b828111156100b057825182546001600160a01b0319166001600160a01b0390911617825560209092019160019091019061007b565b506100bc9291506100c0565b5090565b5b808211156100bc57600081556001016100c1565b634e487b7160e01b600052604160045260246000fd5b80516001600160a01b038116811461010257600080fd5b919050565b6000602080838503121561011a57600080fd5b82516001600160401b038082111561013157600080fd5b818501915085601f83011261014557600080fd5b815181811115610157576101576100d5565b8060051b604051601f19603f8301168101818110858211171561017c5761017c6100d5565b60405291825284820192508381018501918883111561019a57600080fd5b938501935b828510156101bf576101b0856100eb565b8452938501939285019261019f565b98975050505050505050565b61055b806101da6000396000f3fe608060405234801561001057600080fd5b50600436106100415760003560e01c8063100cd35414610046578063a5552ded1461005b578063b70291441461006e575b600080fd5b610059610054366004610373565b61008c565b005b610059610069366004610373565b6101d7565b610076610250565b60405161008391906103a3565b60405180910390f35b6001546001600160a01b031633146100bf5760405162461bcd60e51b81526004016100b6906103e7565b60405180910390fd5b60005b6000548110156101d357816001600160a01b0316600082815481106100e9576100e9610432565b6000918252602090912001546001600160a01b0316036101cb57805b6000546101149060019061045e565b811015610193576000610128826001610477565b8154811061013857610138610432565b600091825260208220015481546001600160a01b0390911691908390811061016257610162610432565b600091825260209091200180546001600160a01b0319166001600160a01b0392909216919091179055600101610105565b5060008054806101a5576101a561048a565b600082815260209020810160001990810180546001600160a01b03191690550190555050565b6001016100c2565b5050565b6001546001600160a01b031633146102015760405162461bcd60e51b81526004016100b6906103e7565b600080546001810182559080527f290decd9548b62a8d60345a988386fc84ba6bc95484008f6362f93160ef3e5630180546001600160a01b0319166001600160a01b0392909216919091179055565b600080546060919067ffffffffffffffff811115610270576102706104a0565b604051908082528060200260200182016040528015610299578160200160208202803683370190505b50905060005b60005481101561036d5760006102d9600083815481106102c1576102c1610432565b6000918252602090912001546001600160a01b031690565b90506000816001600160a01b031663feaf968c6040518163ffffffff1660e01b815260040160a060405180830381865afa15801561031b573d6000803e3d6000fd5b505050506040513d601f19601f8201168201806040525081019061033f91906104d5565b5050509150508084848151811061035857610358610432565b6020908102919091010152505060010161029f565b50919050565b60006020828403121561038557600080fd5b81356001600160a01b038116811461039c57600080fd5b9392505050565b6020808252825182820181905260009190848201906040850190845b818110156103db578351835292840192918401916001016103bf565b50909695505050505050565b6020808252602b908201527f4f6e6c79206f776e65722063616e2065786563757465207468697320636f6e7460408201526a1c9858dd081b595d1a1bd960aa1b606082015260800190565b634e487b7160e01b600052603260045260246000fd5b634e487b7160e01b600052601160045260246000fd5b8181038181111561047157610471610448565b92915050565b8082018082111561047157610471610448565b634e487b7160e01b600052603160045260246000fd5b634e487b7160e01b600052604160045260246000fd5b805169ffffffffffffffffffff811681146104d057600080fd5b919050565b600080600080600060a086880312156104ed57600080fd5b6104f6866104b6565b9450602086015193506040860151925060608601519150610519608087016104b6565b9050929550929590935056fea2646970667358221220a28f3b0fdd2333ab43549f36def3c87093b2af23b557b57cecdeea235cf3f02d64736f6c63430008160033",
    "linkReferences": {}
  },
  "methodIdentifiers": {
    "addContractPrice(address)": "a5552ded",
    "getPriceList()": "b7029144",
    "removeContractPrice(address)": "100cd354"
  },
  "id": 30
}